:020000040000FA
:1000000000008A110328FE30FE000030FF0080301F
:100010008A110000AA208A11000083120313A10094
:100020007F08A0000030A2000130A3008312031358
:100030002008A4002108A500FF30A007031CA1038D
:10004000240825040319932804302207A400A501DD
:10005000A50D2308A5072408FE002508FF00803011
:100060008A110000AA208A11000083120313A7003E
:100070007F08A6002208FE002308FF0080308A11B6
:100080000000AA208A11000083120313A900A50012
:100090007F08A800A40002302207A400A501A50D36
:1000A0002308A5072408FE002508FF0080308A11D8
:1000B0000000AA208A11000083120313A500AB00E0
:1000C0007F08A400AA00831203132608AA002708A9
:1000D000AB00FF30A607031CA7032A082B04031953
:1000E0008C282808FE002908FF0080308A110000B3
:1000F00097208A11000083120313AA0024088400A9
:100100008313251883172A088000A80A0319A90A4F
:10011000A40A0319A50A6328063083120313A20751
:100120000318A30A16288A110000CB280800003AF9
:1001300003199E28803A0319A52800347E088400FC
:1001400083137F188317000808007F088A007E0841
:1001500082000800003A0319B228803A0319BC282B
:10016000FF0100347E08840083137F188317000882
:10017000FF00840A000808008A110000A520FD0085
:10018000FE0FFF03FF0A8A110000A520FC007D0876
:10019000FF007C08080083120313870183160313F2
:1001A000870183120313B001FA30FF000030E3200F
:1001B000831203133008831203138700831203137F
:1001C000B00AD428080083120313AD007F08AC00E6
:1001D000831203132C08AE002D08AF00FF30AC07CC
:1001E000031CAD032E082F040319FD28C830AE00F0
:1001F00083120313AE0BF828E828080001340034FA
:0E02000006340134313400340134003400344B
:02400E00E4309C
:00000001FF
