S00F00004D657A6F6E696E2E7372656335
S315080000000009002051010008000000005501000801
S3150800001057010008590100085B01000800000000AC
S315080000200000000000000000000000005D0100085C
S315080000305F01000800000000610100086301000874
S3150800004023090008F50600086501000800000000FD
S31508000050000000006501000865010008C5050008E4
S315080000606501000800000000650100086501000838
S315080000706501000800000000650100086501000828
S315080000806501000865010008000000006501000818
S3150800009065010008000000000000000000000000E4
S315080000A000000000000000000000000065010008D4
S315080000B0650100086501000865010008650100087A
S315080000C000F002F800F035F80AA090E8000C824427
S315080000D08344AAF10107DA4501D100F02AF8AFF204
S315080000E0090EBAE80F0013F0010F18BFFB1A43F008
S315080000F001031847B40D0000C40D0000103A24BFD0
S3150800010078C878C1FAD8520724BF30C830C144BF6E
S3150800011004680C607047642900F08285732900F032
S315080001204686002070471FB500F08DFE1FBD10B52E
S3150800013010BD00F048FE1146FFF7F5FF00F0B4F8D1
S3150800014000F066FE03B4FFF7F2FF03BC00F070FE92
S3150800015008480047FEE7FEE7FEE7FEE7FEE7FEE79C
S31508000160FEE7FEE7FEE7000003480449044A054B9C
S3150800017070470000C10000080001002000090020A7
S31508000180000500200005002000BF0100A0F10100C5
S31508000190FBD170470120C349886000BFC148006889
S315080001A010F0040FFAD00220BE49C8604002486029
S315080001B0001D486040F20C40486040F20440486028
S315080001C000BFB848006810F0020FFAD04FF48370E9
S315080001D0B449C8607047B349C96941F00071B14A6A
S315080001E0D161B149886840F4001020F48010886015
S315080001F0C96841F48061AC4AD1601146896941F405
S31508000200001191611146896921F4801191611146A5
S31508000210496841F480615160A249C96941F40041C5
S31508000220A04AD1611146496A41F000715162002124
S315080002309E4AD16011605160072191604FF4406178
S3150800024051624FF410615163042151610121D1605B
S31508000250704700B59348C06940F400009149C861E9
S315080002609348836823F040538360C06840F4804015
S315080002708F49C8600846836923F0805343F00053CA
S315080002808361406840F4804048600846006840F44E
S31508000290804008601F20FFF777FF8548006820F434
S315080002A080408349086000BD3EB58248806B40F0B7
S315080002B080008049886372B6FFF76CFFFFF78BFFF3
S315080002C0FFF7C7FF00F02AF900F044F97AA000F01A
S315080002D069F900F097F900F0B3F900F037FA00F081
S315080002E04FFA00F077FB62B6754800F0FFFB04464C
S315080002F044F002042146724800F008FC00217148C7
S3150800030000F004FC00216F48001D00F0FFFB0021EF
S315080003106C48083000F0FAFBC3E04FF0807000F03C
S31508000320FEFB0446B4F1AA3F00D0BAE066A000F08E
S3150800033039F9002067490860674908606749086015
S31508000340A8E064480068401C624908606448007870
S31508000350401C6349087000250AE061480078614935
S3150800036048555F480078401C5F494855681CC5B227
S31508000370082DF2DB00214FF08040416403215B48E1
S3150800038041645849002000F092FA5948FFF7FCFEEC
S31508000390002058490870002510E05248405D52492F
S315080003A0495D884208D00120524908704A480068C9
S315080003B0401C4949086003E0681CC5B2082DECDBFF
S315080003C000BF00250AE04648007847494855444892
S315080003D00078401C43494855681CC5B2082DF2DB15
S315080003E003214FF0804041640021404841643E4962
S315080003F0002000F01FFA4FF6FF70FFF7C5FE002039
S315080004003D490870002510E03648405D3649495D8B
S31508000410884208D001203849087030480068401CD6
S315080004202E49086003E0681CC5B2082DECDB00BF46
S315080004302A4803683048007808B930A200E030A29C
S31508000440254801682B488DE80E00007808B92BA0CE
S3150800045000E02BA003461F482B4902682B4800F0F2
S315080004606BFB2A4800F09EF81A480168154800F008
S315080004704DFB194801681348001D00F047FB174853
S3150800048001681048083000F041FB4FF0807000F01A
S3150800049046FB0446002C7FF454AF1DA000F082F8FA
S315080004A000BF3AE70000024000800C400080074089
S315080004B000800B4000800D4053746172740D00007B
S315080004C004002001040000015374617274207465ED
S315080004D073740D001000002014000020180000207E
S315080004E01E000020000000200800002000800040B8
S315080004F0FFFF0F001C0000201D0000204F4B2100AD
S315080005004552524F52210000540E00082000002088
S3150800051053746F7020746573740D00003048C06999
S3150800052040F000502E49C8612E48806840F00F0000
S315080005302C4988600846C06840F00300C860084631
S31508000540806920F00F0088610846806940F0050040
S31508000550886170472248C06940F080002049C86118
S315080005604FF0022088620A201F49486236208862B6
S315080005706820C86240F2013008630846806B40F084
S31508000580100088631948006840F080004FF0E021A9
S31508000590C1F8000170471449086070471249096894
S315080005A0C8B27047002109E0425C0F4B1A6000BFD1
S315080005B00D4A926912F0080FFAD1491C425C002ACA
S315080005C0F2D1704730B50848046C14F0100F03D008
S315080005D0056810200449486405A0FFF7E3FF30BD0D
S315080005E00000024000800E400080034000E100E069
S315080005F055415254325F49525148616E646C657276
S315080006000D000000DE49C96941F08071DC4AD161FC
S31508000610DC498868DC490840DC490843D9498860D0
S31508000620C96841F40241D74AD16011468869D74959
S31508000630C9430840D449C9430843114688617047ED
S31508000640CF49C96941F00201CD4AD1611146096A0B
S3150800065041F000711162CE49CE4A91600020012214
S31508000660CC49403141F820200205CB4901EB001165
S315080006700A6040F60822C84901EB00114A60411C8D
S31508000680090641EA004141EA0022411C0A43C249DF
S3150800069001EB00118A60411C090641EA004141EA62
S315080006A00021421C0A43BC4901EB0011CA60012023
S315080006B00322B849403141F820200022B74941F8C1
S315080006C0302001EBC0014A607F21B24AD161811E08
S315080006D0B34A11604FF00301AE4A11614FF0E021B1
S315080006E0D1F8001141F00201AE4A11600146A94A4B
S315080006F01160704710B5AC4B186810F0020F24D083
S31508000700A44B5B6C13F0400F1FD0A24B5B6C23F01D
S315080007104004A04B5C64A54B196803F104031A68EE
S31508000720A34C21704FEA112363704FEA1143A3705B
S315080007304FEA1163E37022714FEA122363714FEA9D
S315080007401243A3714FEA1263E37110BD8C49C9695C
S3150800075041F400018A4AD1619649886820F420202C
S3150800076040F4A0208860C96841F44071914AD1607C
S315080007701146886920F4A02040F42020886170473B
S315080007807F49C96941F001017D4AD1611146096A6B
S3150800079041F0807111627E490A07916000200122AA
S315080007A0854941F820200205844901EB00110A60B9
S315080007B040F60822814901EB00114A60411C0906EE
S315080007C041EA004141EA0022411C0A437B4901EB08
S315080007D000118A60411C090641EA004141EA0021EC
S315080007E0421C0A43754901EB0011CA600120032225
S315080007F0714941F820200022714941F8302001EB67
S31508000800C0014A607F218207D161811E6D4A11604D
S315080008104FF003014FF0804211614FF0E021D1F80B
S31508000820001141F001015F4A116001464FF0804214
S3150800083011607047024600225648403050F82200A0
S3150800084010F0200F01D001207047C87800068B7879
S3150800085040EA03404B7840EA03200B7818434E4B96
S3150800086003EB02139860C87900068B7940EA0340C7
S315080008704B7940EA032308790343474800EB021003
S31508000880C360454800EB0210406840F420634248C4
S3150800089000EB021043603F48403050F8220040F019
S315080008A020033C48403040F822300020CCE702467E
S315080008B00022414850F8220010F0200F01D00120F4
S315080008C07047C87800068B7840EA03404B7840EAC0
S315080008D003200B781843394B03EB02139860C87949
S315080008E000068B7940EA03404B7940EA03230879EE
S315080008F00343324800EB0210C360304800EB021095
S31508000900406840F420632D4800EB021043602A48F3
S3150800091050F8220040F02003274840F822300020F3
S31508000920CEE710B5284B186810F0020F26D01B0723
S315080009305B6C13F0400F21D04FF080435B6C23F0C3
S3150800094040044FF080435C64204B196803F10403AC
S315080009501A681F4C21704FEA112363704FEA11433E
S31508000960A3704FEA1163E37022714FEA1223637191
S315080009704FEA1243A3714FEA1263E37110BD0000F8
S315080009800000024000000C40FFFFF77F0000044013
S315080009900400710F0080004000820040008500407E
S315080009A0C080004000E100E0C4800040188200409A
S315080009B00800002000800B40400000400002004074
S315080009C000050040C0000040C40000401802004076
S315080009D0000000203A49C96941F40011384AD1613A
S315080009E01146C96941F48001D1611146C96941F4CA
S315080009F00001D1611146C96941F00071D161114602
S31508000A00C96941F00051D1611146C96941F0804177
S31508000A10D1614FF055312B4A91604FF6FF71D16085
S31508000A204FF0FF3191614FF05531274A91604FF6EB
S31508000A30FF71D1604FF0FF3191612449886841F216
S31508000A40545108434900884320498860C96841F0E1
S31508000A507E011E4AD1601146886943F6FC71084337
S31508000A60114688611A4988681A4908431A4908408C
S31508000A7017498860C96846F2FF121143144AD160C3
S31508000A8011468869154908431146886114498868DA
S31508000A901449084313490F31084011498860C96849
S31508000AA04FF6FC7211430E4AD1601146886960F010
S31508000AB00F00886143F202010B4A51657047000036
S31508000AC00000024000800A4000000B4000800B40F6
S31508000AD000800C40555501145555FDD7FFFF033CC2
S31508000AE000800E405055555500000F40014600BF86
S31508000AF0104AD268002AFBD10E4A916000BF0D4AFF
S31508000B00D268002AFBD10B4A9068704740F04042F1
S31508000B1000BF084BDB68002BFBD11160704701460C
S31508000B2041F0404200BF034BDB68002BFBD1106845
S31508000B30704700000000C0C10FB408491CB506ABD9
S31508000B406A4679440090059800F007F9002069463E
S31508000B5000F016F91CBC5DF814FB00003B0200000F
S31508000B602DE9F04104460E4600202BE0E1682046B8
S31508000B70884748B3252802D0D4E901211FE0E16857
S31508000B8020460027884705001ED0A5F141001928F0
S31508000B9002D820354FF4006732462946204627609A
S31508000BA0FFF7B9FA40B1012801D1361DDEE7F61D77
S31508000BB026F007060836D9E7D4E9012128469047E2
S31508000BC0206A401C2062D1E7206ABDE8F08170B532
S31508000BD005460C46012A01D101200BE0286880064B
S31508000BE000D5EA69002000E0401C904202D2215C50
S31508000BF00029F9D1A9692618091AA961296A01449F
S31508000C0028462962AFF3008004E0D5E9012114F8EB
S31508000C10010B9047B442F8D32846AFF3008070BD65
S31508000C202DE9F0418046002610687529414615A52C
S31508000C3012D0AFF30080002803DAC0F1000012A535
S31508000C4008E0D8F800108A0701D510A502E0490780
S31508000C5004D50FA5012601E0AFF30080002408F1B2
S31508000C60240704E000F0A7F830313955641C002841
S31508000C70F8D133462A4621464046BDE8F04100F001
S31508000C800CB80000000000002D0000002B0000003A
S31508000C90200000007047704770472DE9F0470D4661
S31508000CA004469246994600F124080168880604D548
S31508000CB0E06921F01001216000E001200027A84228
S31508000CC001DDA0EB0507A16907EB050202EB0900A8
S31508000CD0A1EB0000A0612068C00602D42046AFF34D
S31508000CE00080002608E0D4E901211AF8060090479A
S31508000CF0206A401C761C20624E45F4DB2068C0063C
S31508000D000AD52046AFF3008006E0D4E90121302059
S31508000D109047206A401C2062381EA7F10107F4DCC0
S31508000D2007E0D4E9012118F805009047206A401C1D
S31508000D302062281EA5F10105F3DC2046AFF30080EA
S31508000D4021680220090600D40120BDE8F0870000CA
S31508000D5001694A1C02610878704710B50C461946A5
S31508000D6090B0CDE9024200220692044A7A44CDE9BF
S31508000D70042001A8FFF7F4FE10B010BDE1FFFFFF45
S31508000D800A6802F8010B0A60704710B5436913B187
S31508000D90AFF3008001E0FFF71AFF012010BD1268CB
S31508000DA000F124010A7000224A700122EDE7116859
S31508000DB04FF0FF32E9E74FF00A01B0FBF1F202FB10
S31508000DC0110110467047754600F028F8AE46050032
S31508000DD06946534620F00700854618B020B5FFF748
S31508000DE0C3F9BDE820404FF000064FF000074FF06A
S31508000DF000084FF0000B21F00701AC46ACE8C0092B
S31508000E00ACE8C009ACE8C009ACE8C0098D46704733
S31508000E100446AFF300802046FFF794F90048704770
S31508000E20A00000200148704770470000A400002079
S31508000E3003494FF01800ABBE7047000009000000D8
S31508000E4026000200704710B5FFF7ECFF4FF00001CF
S31508000E50016010BD546573742043414E20284E200E
S31508000E603D202564293A2043414E312D3E43414ECB
S31508000E70322020257320286572726F7273202564CC
S31508000E80292020207C7C20202043414E322D3E43C1
S31508000E90414E312020257320286572726F727320A7
S31508000EA02564290D00000000B80E00080000002087
S31508000EB020000000FC000008000000000000000000
S31508000EC00000000000000000000000000000000014
S30D08000ED000000000000000000C
S705080000C131
