:0400000080312828FB
:100008007E14803120007F08F1000B1D1728A330D3
:1000180095000B117408031D15280C1021000C10F5
:1000280017280130F4028B1C23288B107308F0006A
:100038007008F40021000C140B158B167514710848
:100048002000FF007E10090080312A28F501F30105
:10005800F4017E10200080313128FF3021008C000F
:10006800FF308E000C1420000C1021000E1420000C
:100078000E148C1421008C1420000C1521000C1572
:10008800F401F30175108B010B168B17751C4A28A8
:10009800751020008C1854280130F2007208F307FC
:0A00A8000C194A280130F3024A281F
:00000001FF
