:08000000803102288731FD2F39
:100EEA00F0002000111E762F700823009A000800D7
:100EFA002000911E7D2F23001908F0007008F100D0
:100F0A001D197D2F9D107108080071088400720850
:100F1A008500120003190800710884007208850010
:100F2A0000088731752787310130F1070030F23D1B
:100F3A008A2F23000C1021000C1423008C1021008E
:100F4A008C1423000C1121000C1123000C12210017
:100F5A000C1214303D00940021008C1605303C0020
:100F6A00A40023000E1021000E1023008E10210071
:100F7A008E1023000E1121000E1123008E11210064
:100F8A008E1123000E1221000E1223008E12210050
:100F9A008E12191799161916991123009C013330CC
:100FAA009B0020309E0090309D002A30F4008E3045
:100FBA00890BDD2FF40BDD2F0030F1008830F200B1
:100FCA0087318A27873187317D278731F400740872
:100FDA00F5001430F1008830F20087318A27873112
:100FEA0075088731752787311B30F1008830E42F67
:100FFA00200087319E2F0D340A340D340A345434BC
:10100A006534733474342034733474346134723410
:10101A007434653464342E340D340A34003447345D
:10102A006F3474343A3420342734003427340D347E
:04103A000A34003440
:020000040001F9
:04000E0064FFFFFF8D
:00000001FF
