:08000000803102288731FD2F39
:100EE200F0002000111E722F700823009A000800E3
:100EF2002000911E792F23001908F0007008F100DC
:100F02001D19792F9D10710808007108840072085C
:100F12008500120003190800710884007208850018
:100F220000088731712787310130F1070030F23D27
:100F3200862F23000C1021000C1423008C1021009A
:100F42008C1423000C1121000C1123000C1221001F
:100F52000C1214303D00940021008C1605303C0028
:100F6200A40023000E1021000E1023008E10210079
:100F72008E1023000E1121000E1123008E1121006C
:100F82008E1123000E1221000E1223008E12210058
:100F92008E121917991619169911333023009B00D6
:100FA20020309E0090309D005230F5002B30F4002E
:100FB2000030890BDA2FF40BDA2FF50BDA2F00321F
:100FC2000030F1008830F20087318627873187317F
:100FD20079278731F4007408F6001430F100883064
:100FE200F20087318627873176088731712787316A
:100FF2001B30F1008830E42F200087319A2F0D3406
:101002000A340D340A34543465347334743420345D
:1010120073347434613472347434653464342E3409
:101022000D340A34003447346F3474343A34203483
:0C1032002734003427340D340A34003415
:020000040001F9
:04000E0064FFFFFF8D
:00000001FF
