:100000007DC118951895189518951895EBC21895F7
:1000100018951895189536007F007F007F003E00E8
:100020001C00080000001C003E003E001C000800F0
:100030000000000000001C001C0008000000000080
:1000400000000000000008000000000000000000A8
:100050000000000000000000000000000800080090
:100060000800080008000800080001000200040061
:1000700008001000200040000000000000007F0089
:1000800000000000000040002000100008000400F4
:10009000020001001C002A0049004900550022000E
:1000A0001C001C002A002A002A00360022001C0026
:1000B00008001C001C001C001400140008000800AC
:1000C00008000800080008000800080008000800F0
:1000D00008007F000800080008004100220014000A
:1000E000080014002200410000004100220014001A
:1000F0000800000000000000000041003600080079
:100100000000000000000000000077000800000070
:100110000000000000000000360049000000000060
:1001200000000000000008000000000000000000C7
:10013000000008001C000800000000000000000093
:100140001C001C001C000000000000002A001C0015
:100150003E001C002A00000049002A001C007F000D
:100160001C002A0049000000000000000000000000
:10017000000000000800080008007F0008000800D8
:100180000800080008001C0077001C000800080098
:1001900008003E002200630020003E0008007F00AF
:1001A000410041004100410041007F00000000008B
:1001B000200024002D007F007F0000004000400050
:1001C00054007E007F007F000000000009000B004B
:1001D0002F007F007F0000000800080009002B00AE
:1001E0007F007F007F00410041004100410041004D
:1001F0007F0000003E002200220022003E0000009E
:10020000000000001C0014001C00000000000000A2
:100210000000000008000000000000001C00220098
:1002200041004100410022001C0000001C0022008F
:10023000220022001C000000000000000800140042
:10024000080000000000000000000000080000009E
:10025000000000007F0041004100410041004100DA
:100260007F0000000000000000000000000000000F
:1002700008001400220041002200140008000000C1
:100280000000000000000000000000007F004100AE
:1002900041004100410041007F003E00410041001B
:1002A0004100410041003E001C002200410041008D
:1002B000410022001C0008001400360041003600F6
:1002C000140008000000140036000A003600140074
:1002D0000000000000001C001C001C0000000000CA
:1002E0000000000000000800000000000000000006
:1002F0000000000000000000000000000FED0DBF36
:10030000479A0FEF07BB0EEF08BB0FEF01BB05E5E8
:1003100002BB03E003BF02E009BFF0E0EDE1F083C0
:10032000EA95E9F7789407E01EEF009360001093D8
:10033000610001E0009363000027009364000091D6
:100340006300013029F5A9D1E6E1F0E0AFD1A5D1F4
:10035000A4D1E4E2F0E0AAD1A0D1E2E3F0E0A6D19A
:100360009CD1E0E4F0E0A2D198D1EEE4F0E09ED19F
:1003700094D1E0E4F0E09AD190D1E2E3F0E096D1BC
:100380008CD1E4E2F0E092D1002700936400D7CF53
:10039000009163000230A1F480D1ECE5F0E086D159
:1003A0007CD1EAE6F0E082D178D1E8E7F0E07ED1D6
:1003B00074D1E6E8F0E07AD1002700936400E8CF3A
:1003C000009163000330E1F468D1E4E9F0E06ED11C
:1003D00064D1E2EAF0E06AD160D1E0EBF0E066D10E
:1003E0005CD1EEEBF0E062D158D1E0EBF0E05ED111
:1003F00054D1E2EAF0E05AD1002700936400E0CF44
:1004000000916300043061F448D1ECECF0E04ED18F
:1004100044D1EAEDF0E04AD1002700936400F0CF28
:10042000009163000530E1F438D1E8EEF0E03ED110
:1004300034D1E6EFF0E03AD130D1E4E0F1E036D16A
:100440002CD1E2E1F1E032D128D1E4E0F1E02ED18B
:1004500024D1E6EFF0E02AD1002700936400E0CF3A
:10046000009163000630E9F418D1E0E2F1E01ED11A
:1004700014D1EEE2F1E01AD110D1ECE3F1E016D1A3
:100480000CD1EAE4F1E012D108D1E8E5F1E00ED1B7
:1004900004D1E6E6F1E00AD100D100270093640020
:1004A000DFCF009163000730A1F4F7D0E4E7F1E07B
:1004B000FDD0F3D0E2E8F1E0F9D0EFD0E0E9F1E0EF
:1004C000F5D0EBD0EEE9F1E0F1D000270093640025
:1004D000E8CF009163000830A1F4DFD0ECEAF1E04E
:1004E000E5D0DBD0EAEBF1E0E1D0D7D0E8ECF1E009
:1004F000DDD0D3D0E6EDF1E0D9D000270093640041
:10050000E8CF009163000930A1F4C7D0E4EEF1E038
:10051000CDD0C3D0E2EFF1E0C9D0BFD0E0E0F2E04F
:10052000C5D0BBD0EEE0F2E0C1D00027009364005C
:10053000E8CF009163000A30A1F4AFD0ECE1F2E023
:10054000B5D0ABD0EAE2F2E0B1D0A7D0E8E3F2E078
:10055000ADD0A3D0E6E4F2E0A9D000270093640078
:10056000E8CF009163000B30A1F497D0E4E5F2E00E
:100570009DD093D0E2E6F2E099D08FD0E0E7F2E0B0
:1005800095D08BD0EEE7F2E091D000270093640085
:10059000D0CF009163000C3021F57FD0ECE8F2E081
:1005A00085D07BD0EAE9F2E081D077D0E8EAF2E0CA
:1005B0007DD073D0E6EBF2E079D06FD0E4ECF2E0DE
:1005C00075D06BD0E2EDF2E071D067D0E0EEF2E0F2
:1005D0006DD063D0EEEEF2E069D0002700936400A6
:1005E000A8CFADCE0F9303E602BF0FB70F93AF9323
:1005F000BF93CF93DF931F932F933F934F935F93BB
:100600006F937F938F939F930F92009164000023C9
:10061000B9F406B30078002399F406B300780023F8
:1006200079F406B30078002359F40FEF00936400C7
:100630000091630003950D3009F401E0009363001D
:100640000091600010916100A091620018BB2D9193
:1006500022BB0894111F0A95002319F407E01EEF2E
:10066000A5E60093600010936100A0936200112042
:1006700011F01A9400C00F909F918F917F916F910C
:100680005F914F913F912F911F91DF91CF91BF913A
:10069000AF910F910FBF0F911895F8940F9302E34C
:1006A000102E0F9178941120F1F708950F93AF93C6
:1006B000BF93B0E0A5E607E0C89532960D920A9583
:0A06C000D9F7BF91AF910F91089593
:00000001FF
