S00E000063726F6E79782E7372656373
S11300000AC07FC07EC07DC07CC07BC07AC079C07E
S113001078C077C076C0C6E0D0E0209751F0A0E663
S1130020B0E0E8E4F2E0C8950D92219711F0319622
S1130030FACF1124A6E6B0E000E001C01D92A83674
S1130040B007E1F7D9C000000000000000003E4105
S1130050414122007F484C4A31003E4141413E002B
S11300607F1008047F0060180718600063140814E8
S113007063000000000000007F08142241007F4458
S1130080444438003E4141413E007F0808087F0057
S11300907F0408107F007F08142241003E41414143
S11300A02200000000000000FF000000000000002B
S11300B0003E41414122000000007F0808087F0003
S11300C03E4141413E007F49494936007F090600CF
S11300D07F007F2010207F000000007F4040400010
S11300E03E4141413E00033E42427E03003E4141C7
S11300F0413E007F2010207F007D000000000000B2
S113010000FF189500008150E9F708959AEF000068
S11301109150E9F79AEF00009150E9F79AEF000047
S11301209150E9F79AEF00009150E9F7815071F787
S11301300895CF92DF92EF92FF920F931F93CF9384
S1130140DF93E82EF92E062F172F81E0C82ED12C2D
S11301502DC0C0E0D0E08C2D9D2D0C2E02C0880F48
S1130160991F0A94E2F7809588BBEE2DFF2DEC0FC2
S1130170FD1FC895E02DE2BB81E0C8DF2196C730A2
S1130180D10549F78827B79983959091660088230C
S113019029F0992349F01092660006C0992321F4AE
S11301A081E08093670005C00750104010161106C7
S11301B084F2DF91CF911F910F91FF90EF90DF9028
S11301C0CF900895CF93DF93C82FD92F0AC08C2FD7
S11301D09D2F6DE770E0ADDF80916700882349F4BF
S11301E021962696EC2FFD2FC895802D26978F3FBC
S11301F071F7DF91CF9108951F93CF93DF938FE72A
S113020087BB81BBC0E0D0E011E0EC2FFD2FEE0FE7
S1130210FF1FE05AFF4F80819181D4DF80916700F6
S1130220882399F32196EC2FFD2FEE0FFF1FE05A40
S1130230FF4F80819181892B11F4C0E0D0E01093AD
S10B0240660010926700E1CF93
S10902484600A9000000BD
S9030000FC
