S00E00006E6D353130312E7372656374
S11300000AC0EFC0EEC0EDC0ECC0EBC0EAC0E9C06E
S1130010E8C0E7C0E6C0CAE1D0E0209751F0A0E60E
S1130020B0E0E4E2F3E0C8950D92219711F0319627
S1130030FACF1124AAE7B0E000E001C01D92AC376A
S1130040B007E1F747C1367F7F7F3E1C08001C3EA6
S11300503E1C080000001C1C0800000000000800F2
S11300600000000000000000000000000800000084
S113007000001C1C080000001C3E3E1C0800367FCB
S11300807F7F3E1C08FF0808080808080840201065
S1130090080402010000007F0000000102040810AF
S11300A02040FF1C2A494955221C1C2A2A2A362290
S11300B01C081C1C1C14140808080808080808FF5D
S11300C00808087F08080841221408142241FF0088
S11300D0412214080000000041360800000000001E
S11300E07708000000000036490000FF0000000807
S11300F00000000000081C08000000001C1C1C007C
S113010000002A1C3E1C2A00492A1C7F1C2A490084
S1130110000000000000FF0808087F08080808081D
S11301201C771C0808083E2263023E087F414141B7
S113013041417FFF000002125A7F7F000101153FF9
S11301407F7F000048687A7F7F000808486A7F7FC5
S1130150FF7F41414141417F003E2222223E000077
S1130160001C141C000000000008000000FF1C22FA
S1130170414141221C001C2222221C0000000814C0
S113018008000000000008000000FF7F41414141D9
S1130190417F0000000000000008142241221408DE
S11301A000000000000000FF7F41414141417F3ECB
S11301B041414141413E1C22414141221C08143627
S11301C0413614080014362836140000001C1C1C88
S11301D00000000000080000000000000000000013
S11301E0FF00189500008150E9F708959AEF000088
S11301F09150E9F79AEF00009150E9F79AEF000067
S11302009150E9F79AEF00009150E9F7815071F7A6
S11302100895CF92DF92EF92FF920F931F93CF93A3
S1130220DF93E82EF92E062F172F81E0C82ED12C4C
S11302302DC0C0E0D0E08C2D9D2D0C2E02C0880F67
S1130240991F0A94E2F7809588BBEE2DFF2DEC0FE1
S1130250FD1FC895E02DE2BB81E0C8DF2196C730C1
S1130260D10549F78827B799839590917A00882317
S113027029F0992349F010927A0006C0992321F4B9
S113028081E080937B0005C00750104010161106D2
S113029084F2DF91CF911F910F91FF90EF90DF9047
S11302A0CF900895CF93DF93C82FD92F0AC08C2FF6
S11302B09D2F6DE770E0ADDF80917B00882339F4DA
S11302C02796EC2FFD2FC895802D8F3F81F7DF9166
S11302D0CF9108951F93CF93DF938FE787BB81BBA3
S11302E0C0E0D0E011E0EC2FFD2FEE0FFF1FE05A2D
S11302F0FF4F80819181D6DF80917B00882399F321
S11303002196EC2FFD2FEE0FFF1FE05AFF4F808147
S11303109181892B11F4C0E0D0E010937A001092FF
S10703207B00E1CFAA
S113032446008600A300C000CF00EC00170134018E
S10D033451016E018B01A8010000C5
S9030000FC
