:020000040000FA
:100000003E02040000000000240800002808000050
:100010002C080000300800003408000038080000F8
:100020003C080000400800004408000048080000A8
:100030004C08000050080000540800005808000058
:100040005C08000060080000640800006808000008
:100050006C080000700800007408000078080000B8
:100060007C08000080080000840800008808000068
:100070008C08000090080000940800009808000018
:100080009C080000A0080000A4080000A8080000C8
:10009000AC080000B0080000B4080000B808000078
:1000A000BC080000C0080000C4080000C808000028
:1000B000CC080000D0080000D4080000D8080000D8
:1000C000DC080000E0080000E4080000E808000088
:1000D000EC080000F0080000F4080000F808000038
:1000E000FC080000000900000409000008090000E5
:1000F0000C09000010090000140900001809000094
:100100001C09000020090000240900002809000043
:100110002C090000300900003409000038090000F3
:100120003C090000400900004409000048090000A3
:100130004C09000050090000540900005809000053
:100140005C09000060090000640900006809000003
:100150006C090000700900007409000078090000B3
:100160007C09000080090000840900008809000063
:100170008C09000090090000940900009809000013
:100180009C090000A0090000A4090000A8090000C3
:10019000AC090000B0090000B4090000B809000073
:1001A000BC090000C0090000C4090000C809000023
:1001B000CC090000D0090000D4090000D8090000D3
:1001C000DC090000E0090000E4090000E809000083
:1001D000EC090000F0090000F4090000F809000033
:1001E000FC090000000A0000040A0000080A0000E0
:1001F0000C0A0000100A0000140A0000180A00008F
:10020000FFFFFF00FFFFFF0024F0000028F00000C8
:100210002CF0000030F0000034F0000038F0000056
:100220003CF0000040F0000044F0000048F0000006
:100230004CF0000050F0000054F0000058F00000B6
:100240005CF0000060F0000064F0000068F0000066
:100250006CF0000070F0000074F0000078F0000016
:100260007EF0000080F0000084F0000088F00000C4
:100270008CF0000090F0000094F0000098F0000076
:100280009CF00000A0F00000A4F00000A8F0000026
:10029000ACF00000B0F00000B4F00000B8F00000D6
:1002A000BCF00000C0F00000C4F00000C8F0000086
:1002B000CCF00000D0F00000D4F00000D8F0000036
:1002C000DCF00000E0F00000E4F00000E8F00000E6
:1002D000ECF00000F0F00000F4F00000F8F0000096
:1002E000FCF0000000F1000004F1000008F1000043
:1002F0000CF1000010F1000014F1000018F10000F2
:100300001CF1000020F1000024F1000028F10000A1
:100310002CF1000030F1000034F1000038F1000051
:100320003CF1000040F1000044F1000048F1000001
:100330004CF1000050F1000054F1000058F10000B1
:100340005CF1000060F1000064F1000068F1000061
:100350006CF1000070F1000074F1000078F1000011
:100360007CF1000080F1000084F1000088F10000C1
:100370008CF1000090F1000094F1000098F1000071
:100380009CF10000A0F10000A4F10000A8F1000021
:10039000ACF10000B0F10000B4F10000B8F10000D1
:1003A000BCF10000C0F10000C4F10000C8F1000081
:1003B000CCF10000D0F10000D4F10000D8F1000031
:1003C000DCF10000E0F10000E4F10000E8F10000E1
:1003D000ECF10000F0F10000F4F10000F8F1000091
:1003E000FCF1000000F2000004F2000008F200003E
:1003F0000CF2000010F2000014F2000018F20000ED
:1004000020FF2F0060198800C902A80000002A0000
:10041000210020000D000700F1EE2B00810F50009D
:1004200006003200CBC2BF000008A3000300320068
:1004300020080400000000000300370083E0A8004B
:1004400020F0040000000000000006000400FA0094
:10045000E0BF9F00F1BF9F00910180006FF89700FF
:100460000080FB00900188006FB897001000BA0070
:10047000910188000080FA00000006000F80200033
:10048000807F2400000188000000000000020200BC
:10049000000000000040DA000000FE00910188002A
:1004A0001009BA0000000600910188001049BA0046
:1004B00000000600000000000000FE00FFFFFF003B
:1004C000FFFFFF00FFFFFF00FFFFFF00FFFFFF0038
:1004D000FFFFFF00FFFFFF00FFFFFF00FFFFFF0028
:1004E000FFFFFF00FFFFFF00FFFFFF00FFFFFF0018
:1004F000FFFFFF00FFFFFF00FFFFFF00FFFFFF0008
:10100000501A00000001000015030000000000005D
:10101000FFFFFF00FFFFFF00FFFFFF00FFFFFF00DC
:10102000FFFFFF00FFFFFF00FFFFFF00FFFFFF00CC
:10103000FFFFFF00FFFFFF00FFFFFF00FFFFFF00BC
:1010400060EC040000000000860E040000000000B8
:1010500084350400000000008A3504000000000010
:1010600090350400000000009635040000000000E8
:10107000860E040000000000860E04000000000040
:10108000860E040000000000860E04000000000030
:10109000860E040000000000860E04000000000020
:1010A0003A85040000000000860E040000000000E5
:1010B000860E040000000000860E04000000000000
:1010C0004632040000000000860E0400000000000C
:1010D000860E040000000000489404000000000098
:1010E000860E040000000000860E040000000000D0
:1010F0002E6F040000000000860E040000000000B7
:10110000860E040000000000860E040000000000AF
:10111000860E040000000000860E0400000000009F
:101120006C34040000000000860E04000000000083
:10113000860E040000000000860E0400000000007F
:10114000860E040000000000860E0400000000006F
:10115000860E040000000000860E0400000000005F
:10116000860E040000000000363404000000000079
:10117000860E040000000000860E0400000000003F
:10118000860E040000000000860E0400000000002F
:10119000860E040000000000860E0400000000001F
:1011A000860E040000000000860E0400000000000F
:1011B000860E040000000000860E040000000000FF
:1011C000860E040000000000860E040000000000EF
:1011D000860E040000000000860E040000000000DF
:1011E000860E040000000000860E040000000000CF
:1011F000860E040000000000860E040000000000BF
:10120000860E040000000000860E040000000000AE
:10121000860E040000000000860E0400000000009E
:10122000860E040000000000860E0400000000008E
:10123000860E040000000000860E0400000000007E
:10124000860E040000000000860E0400000000006E
:10125000860E040000000000860E0400000000005E
:10126000860E040000000000860E0400000000004E
:10127000860E040000000000860E0400000000003E
:10128000860E040000000000860E0400000000002E
:10129000860E040000000000860E0400000000001E
:1012A000860E040000000000860E0400000000000E
:1012B000860E040000000000860E040000000000FE
:1012C000860E040000000000860E040000000000EE
:1012D000860E040000000000860E040000000000DE
:1012E000860E040000000000860E040000000000CE
:1012F000860E040000000000860E040000000000BE
:10130000860E040000000000860E040000000000AD
:10131000860E040000000000860E0400000000009D
:10132000860E040000000000860E0400000000008D
:10133000860E040000000000C63304000000000018
:10134000860E040000000000860E0400000000006D
:10135000860E040000000000860E0400000000005D
:10136000860E040000000000860E0400000000004D
:10137000860E040000000000860E0400000000003D
:10138000860E040000000000860E0400000000002D
:10139000860E040000000000860E0400000000001D
:1013A000860E040000000000860E0400000000000D
:1013B000860E040000000000860E040000000000FD
:1013C000860E040000000000860E040000000000ED
:1013D000860E040000000000860E040000000000DD
:1013E000860E040000000000860E040000000000CD
:1013F000860E040000000000860E040000000000BD
:10140000860E040000000000860E040000000000AC
:10141000860E040000000000860E0400000000009C
:10142000860E040000000000860E0400000000008C
:10143000860E040000000000FFFFFF00FFFFFF001A
:10144000FFFFFF00FFFFFF00FFFFFF00FFFFFF00A8
:10145000FFFFFF00FFFFFF00FFFFFF00FFFFFF0098
:10146000FFFFFF00FFFFFF00FFFFFF00FFFFFF0088
:10147000FFFFFF00FFFFFF00FFFFFF00FFFFFF0078
:10148000FFFFFF00FFFFFF00FFFFFF00FFFFFF0068
:10149000FFFFFF00FFFFFF00FFFFFF00FFFFFF0058
:1014A000FFFFFF00FFFFFF00FFFFFF00FFFFFF0048
:1014B000FFFFFF00FFFFFF00FFFFFF00FFFFFF0038
:1014C000FFFFFF00FFFFFF00FFFFFF00FFFFFF0028
:1014D000FFFFFF00FFFFFF00FFFFFF00FFFFFF0018
:1014E000FFFFFF00FFFFFF00FFFFFF00FFFFFF0008
:1014F000FFFFFF00FFFFFF00FFFFFF00FFFFFF00F8
:10150000FFFFFF00FFFFFF00FFFFFF00FFFFFF00E7
:10151000FFFFFF00FFFFFF00FFFFFF00FFFFFF00D7
:10152000FFFFFF00FFFFFF00FFFFFF00FFFFFF00C7
:10153000FFFFFF00FFFFFF00FFFFFF00FFFFFF00B7
:10154000FFFFFF00FFFFFF00FFFFFF00FFFFFF00A7
:10155000FFFFFF00FFFFFF00FFFFFF00FFFFFF0097
:10156000FFFFFF00FFFFFF00FFFFFF00FFFFFF0087
:10157000FFFFFF00FFFFFF00FFFFFF00FFFFFF0077
:10158000FFFFFF00FFFFFF00FFFFFF00FFFFFF0067
:10159000FFFFFF00FFFFFF00FFFFFF00FFFFFF0057
:1015A000FFFFFF00FFFFFF00FFFFFF00FFFFFF0047
:1015B000FFFFFF00FFFFFF00FFFFFF00FFFFFF0037
:1015C000FFFFFF00FFFFFF00FFFFFF00FFFFFF0027
:1015D000FFFFFF00FFFFFF00FFFFFF00FFFFFF0017
:1015E000FFFFFF00FFFFFF00FFFFFF00FFFFFF0007
:1015F000FFFFFF00FFFFFF00FFFFFF00FFFFFF00F7
:101600002C800400000000007E4104000000000067
:101610004E7D0400000000008001780002003700C9
:10162000815978000201E9000200E000FCFF3A0065
:10163000000006000B00370010427800914178004E
:10164000834F5200040032000081EB000700390094
:1016500012002000050037000000E8008100E800CB
:101660000201E9000200E000F3FF3A000200780006
:10167000000006008001780002003700B1597800B0
:101680000201E9000200E000FCFF3A000000060051
:10169000889FBE008A9FBE008C1F78002D01070026
:1016A0003401330003866C006450E10024003200F2
:1016B0006420E100270032006150E1002200320086
:1016C0006120E100210032008B854200EB07B10070
:1016D0000134B800003AB8000804420089844A0086
:1016E000013AB8000030B8008880400009014A0083
:1016F00004003300000040008180480002014900DE
:101700008B05E900C909DD0083017000010032008A
:1017100013002000C814DE004814DD004709DE0075
:101720001200B200C808DE00088470002101070022
:1017300001F0A1000CF0A70001F0A0001601370095
:101740006120E100180132000801BE000200BE0065
:10175000F7FF37006150E100FCFF3A00120137004B
:101760000001BE00390107000470A70003F0A100CA
:1017700003F8A30013003A006509B100100032001D
:10178000090035006928E100020035000100280049
:101790000000050000004000818048008502E9004B
:1017A000FCFF3A0000000600F88F420005003500FB
:1017B0008100D1000080D3008502E800FCFF3A00E0
:1017C000000006008000EB0000000500889FBE00BE
:1017D0008A9FBE00010578000100E000040035008A
:1017E00008003C000000E000200032000500370047
:1017F00060001000E080180002003B0001F02C00A7
:101800001A0037000004BE006011B8006B09200008
:101810000982CF00020039000882CF000441B000E5
:10182000694252000E00320008003B0082817100C4
:10183000610164008904D1000884D3008B05E800AD
:101840000442E800F9FF3A000500370008044400AC
:1018500089844C008B05E9000442E900FBFF3A0053
:10186000D40007000AF0A70001F0A0004F05BE0059
:101870004F04BE000000060003F0A200889FBE00D7
:101880008A9FBE008C1F7800B2000700B9003300A9
:101890006450E1004F0032006420E1005200320049
:1018A00003826C0007003B000905D0000306D0004E
:1018B000820F54000C065D00020039000200320065
:1018C00089017800030678008582550004003D00F8
:1018D0000003FD008103FD008502EA008B854200C4
:1018E000840F720002003B0060001000E0801800CE
:1018F0006011B8000005EB007A28E1000A00390009
:1019000006007800C75DDD00F707B200878075002C
:101910002D003700828171000A01780061056000A6
:101920008180D1000080D3008502E900F9FF3B00EF
:10193000060440008784480002003B006004140055
:10194000E0841C000988A300070032008A8171002E
:1019500082817100610164008904D1000884D30090
:101960008B05E800170037000978A30013003A0040
:101970000B00E000130034008B05E900080444006C
:1019800089844C000A4474000978A3000D003A00D1
:101990000B00E000070034008B05E9000804440058
:1019A00089844C0001003A000B0020000978A30054
:1019B000F7FF32000001EB00020037008281710066
:1019C0000A0178007B0007000CF0A70001F0A000DE
:1019D000710037006420E10002003A00838F6C0040
:1019E000710033000801BE000200BE006A0037002B
:1019F000889FBE008A9FBE008C1F7800550007009C
:101A00005C00330003866C006450E1002E0032005D
:101A10006420E100330032006150E1002F00320009
:101A20006120E1003100320085855500EB07B000F0
:101A300009002000080420000500370008044400C5
:101A400089844C000A0031000603430087834B0061
:101A50000001530081815B00F8FF33000203BE00E8
:101A60000800A0000804440089844C00F6FF3900F7
:101A7000C639DD008301730001003200130020002D
:101A80008904D1000884D3000998A300050032001E
:101A90000800A7000300A0008904D1000884D30037
:101AA0008B05E8008904D1000884D3000001EB0015
:101AB0000281D2003F00070001F0A1000CF0A70056
:101AC00001F0A000340037006420E100360032004D
:101AD0000801BE000200BE00F7FF37006120E100F0
:101AE000310032006000B800F3FF37000000200032
:101AF00001F82700F0FF37006022B800060220003E
:101B00000000D0008180D2000482D2008582D20001
:101B10000000A0000202520083825A00030031003C
:101B20000202420083824A000000A1000603E9008D
:101B3000F3FF3A0000000600F4FF2F0058003700C2
:101B40001400200056003700EBFF07000400BE0021
:101B5000000006000004BE003C0007000003BE00B9
:101B60000405BE000200BE0038000700844F750067
:101B7000000006000200BE006450E10005003600CF
:101B80006420E100020036000968A30001003A0069
:101B90000800BE000160A0004F0678004F05BE009F
:101BA0004F04BE0000000600F0FF2F00F1FF2700E9
:101BB000F9FF370081002000618055000B003D00D7
:101BC0000B00200061FE2F000100E1001D00340029
:101BD00082817100610164008904D1000884D3000E
:101BE0000000E800FAFF3A00710020006100640084
:101BF000030070000200600009003200610444002C
:101C0000E0844C000988A500050032008B05E8003F
:101C10006808E10002003A008904D1000884D3007A
:101C2000F20F20000258E10005003D00C75DDD0015
:101C3000F907B200898075000800780000000600EE
:101C40000BF827008B00780000000500C70ADE00B3
:101C5000F107B200F50FB20008003200E1CF4200F8
:101C6000020032000170A00024000500810F700006
:101C7000010032000408050044000500810F7000D7
:101C800002003A00140005008502E900000040004F
:101C900081C04800FCFF3B000170A000240005004B
:101CA000889FBE008A9FBE00841F7800A9FF07009E
:101CB0004F00780011003300F0FF2F00838F6C007D
:101CC00006003B00040565000A00A7000800370075
:101CD00009F0A6001000200008003700820F540011
:101CE000838F5C00030039001000200001003E00DB
:101CF0000000200009F0A7000000EA004F05BE0028
:101D00004F04BE000000E000000006000000FE00DE
:101D10000400FA000040EB00304798000040EB0060
:101D2000204798000040EB00104798000040EB006F
:101D3000004F7800712521000040EB0080487800BA
:101D4000612521000040EB0080487800006C2C00E9
:101D5000D1022000FA390200000000001A490200F6
:101D600000000000D8390200000000000000370029
:101D70003E4090000004E0000B003A0010002000FC
:101D8000DE3E0200000000000004E00006003A0011
:101D900010C0B3003047980001C2B3000040EB0010
:101DA0002E3802000000000056000700D00320007B
:101DB000DE3E0200000000000004E0002E003200C1
:101DC000C0032000DE3E020000000000004F78004B
:101DD00090042000DE3E0200000000000004E0004D
:101DE00025003A000040EB00B83902000000000076
:101DF0000001EB00D103200010002000A03B0200F6
:101E0000000000001E04E00015003A000040EB0056
:101E10001A6F0200000000000040EB00104798001D
:101E2000890D07000004E000010032006A0D070080
:101E3000DE0607000040EB00D03F0200000000007B
:101E4000803E200001002000FA390200000000005E
:101E500010C0B3001A6F020000000000030037003A
:101E600010C0B300D03F02000000000010C0B3005B
:101E7000B839020000000000AB0D0700CBC2BF0064
:101E8000614060000004E00014003A002E40900021
:101E90000004E000B6FF3A0010C0B30020479800ED
:101EA000E0ED200000409300624060000004E0008C
:101EB00002003200CA6202000000000010C0B3003D
:101EC000B83902000000000000712200010020006B
:101ED000FA39020000000000A5FF37002E409000F4
:101EE0000004E000A2FF3200007122000100200087
:101EF000FA390200000000000040EB002047980083
:101F00009BFF37001C00FA00881F780010C0B30048
:101F1000004F7800F30437000040EB00B8390200AE
:101F200000000000E03F2100104078000004E000C5
:101F300005003A000001EB00810020000000EB00EA
:101F4000A03B0200000000000E80E80022002000FC
:101F500003002000607C0200000000000001EB0094
:101F60009100200010002000A03B020000000000B3
:101F70009E00900050022000808F50001D00320013
:101F80009E009000E0032000808F50001900320076
:101F90009E00900090022000808F500015003200BB
:101FA0009E00900050062000808F500011003200EB
:101FB0009E00900080062000808F50000D003200AF
:101FC0009E009000D0022000808F50000900320057
:101FD0001E009000F70F5000060032000E80E8004F
:101FE0008040EB002200200003002000DE7D020084
:101FF000000000001E0090006101B80030FF2F00BB
:10200000F1FF2F000201400083814800420F980039
:10201000530F980070092000010020004E09900025
:10202000DE099000800F5100818F590095043E0019
:102030004E089000DE08900000600100A500370007
:10204000E3003700310137007C0137000B02370015
:10205000C6013700E70137001D0237003F02370095
:10206000880437008D003700860437008504370068
:10207000840437008304370082043700810437006A
:10208000800437007F0437000504370080023700E2
:102090007C04370061023700820437002A043700CD
:1020A000320437005F023700760437002C04370013
:1020B00074043700730437007204370025043700B6
:1020C000700437006F0437006E0437006D0437006A
:1020D0006C0437006B0437006A043700690437006A
:1020E000680437006704370066043700650437006A
:1020F000640437006304370062043700610437006A
:102100006804370022043700750237002C043700BA
:102110007E0337005B043700010437003E033700BD
:10212000A003370038043700560437005504370041
:102130005404370053043700520437005104370069
:10214000500437004F043700A00337006702370000
:102150006A0237006D0237007002370083023700D1
:1021600086023700A2033700880237008B0237004F
:102170004404370043043700420437004104370069
:1021800040043700A8033700B9033700BA0337000B
:10219000BB0337002A0337003A04370041043700F5
:1021A0003804370037043700BB03370035043700E5
:1021B0003404370033043700320437003104370069
:1021C000300437002F043700780237008E023700C2
:1021D0002C0437002B0437002A0437002904370069
:1021E0002804370027043700260437002504370069
:1021F0002404370023043700220437002104370069
:10220000200437001F0437001E0437001D04370068
:102210001C0437008E023700B0023700BC023700C2
:10222000CA023700E402370044033700E0023700F7
:102230001404370013043700120437001104370068
:10224000100437000F0437000E043700490337002D
:102250003C033700410337000A0437000904370004
:102260000804370007043700060437000504370068
:102270000404370003043700020437000104370068
:1022800000043700FF033700F3023700E003370094
:10229000E1033700ED033700F30337006400470024
:1022A0002200200003002000607C020000000000EB
:1022B000787C0200000000000080FB0010079800FE
:1022C0001E009000804078002E0090000C06070051
:1022D000F4033700640047002200200003002000C0
:1022E000607C0200000000002E0090000000E00072
:1022F00034003200886D020000000000AE00900043
:102300002025210011009800AE009000E0ED200093
:102310000128990021252100100020008008780064
:10232000226E02000000000010002000B4380200FD
:102330000000000010C0B3001238020000000000CE
:1023400020002000066D0200000000007000200048
:10235000DE3E0200000000000004E0000500320044
:1023600000092D0031002000FA39020000000000B1
:102370000400370060D8230001002000FA39020071
:1023800000000000146802000000000002002000AD
:10239000A3472400480B020000000000B00B02001D
:1023A0000000000020079800640047008040EB0018
:1023B0002200200003002000DE7D0200000000005B
:1023C000B8033700886D020000000000B503370035
:1023D000640047002200200003002000607C02000F
:1023E000000000002E0090000000E00041003200DC
:1023F0000040EB001670020000000000886D020033
:10240000000000002125210080022000900098009B
:10241000212521001000200080087800AE009000E7
:10242000E0ED200011289900E1ED200061D092003C
:102430000000A100E0D09A00226E0200000000001F
:1024400010002000B43802000000000010C0B300EB
:10245000123802000000000020002000066D02007B
:102460000000000010C0B300667002000000000011
:1024700010C0B300167002000000000070002000C1
:10248000DE3E0200000000000004E0000500320013
:1024900000092D0031002000FA3902000000000080
:1024A0000400370060D8230001002000FA39020040
:1024B0000000000058680200000000000200200038
:1024C000A3472400480B020000000000B00B0200EC
:1024D0000000000020079800640047008040EB00E7
:1024E0002200200003002000DE7D0200000000002A
:1024F0006C0337000040EB00167002000000000083
:10250000886D0200000000006603370010C0B300B1
:102510006670020000000000307F02000000000032
:102520000000EB0020079800360037004A7C0200CC
:10253000000000000004E000FCFF32000E80E80014
:102540002200200003002000607C02000000000048
:102550002E009000646B020000000000700020005C
:10256000DE3E0200000000000004E0000500320032
:1025700000092D0031002000FA390200000000009F
:102580000400370060D8230001002000FA3902005F
:1025900000000000A668020000000000300798005C
:1025A000640047008040EB00220020000300200070
:1025B000DE7D020000000000660047008040EB0066
:1025C0002200200003002000DE7D02000000000049
:1025D0000000EB0030079800680047008040EB00E7
:1025E0002200200003002000DE7D02000000000029
:1025F000307F0200000000002E00900064004000C8
:1026000020079800AE00900000032000808F50004B
:10261000C6FF36004A7C0200000000000004E00013
:10262000FCFF32000E80E8002200200003002000A2
:10263000607C0200000000001A03370010C0B300E5
:102640001670020000000000307F02000000000051
:102650000000EB0020079800360037004A7C02009B
:10266000000000000004E000FCFF32000E80E800E3
:102670002200200003002000607C02000000000017
:102680002E0090004A690200000000007000200047
:10269000DE3E0200000000000004E0000500320001
:1026A00000092D0031002000FA390200000000006E
:1026B0000400370060D8230001002000FA3902002E
:1026C00000000000A668020000000000300798002B
:1026D000640047008040EB0022002000030020003F
:1026E000DE7D020000000000660047008040EB0035
:1026F0002200200003002000DE7D02000000000018
:102700000000EB0030079800680047008040EB00B5
:102710002200200003002000DE7D020000000000F7
:10272000307F0200000000002E0090006400400096
:1027300020079800AE00900000072000808F500016
:10274000C6FF36004A7C0200000000000004E000E2
:10275000FCFF32000E80E800220020000300200071
:10276000607C020000000000CE02370010C0B30001
:102770001670020000000000307F02000000000020
:102780000E0037004A7C0200000000000004E00058
:10279000FCFF32000E80E800220020000300200031
:1027A000607C020000000000307F0200000000009A
:1027B0001E009000F26C0200000000009E009000DD
:1027C000F00F2000808F5000EEFF3A004A7C02009C
:1027D000000000000004E000FCFF32000E80E80072
:1027E0002200200003002000607C020000000000A6
:1027F000AC02370010C0B300667002000000000099
:10280000307F0200000000000E0037004A7C02000A
:10281000000000000004E000FCFF32000E80E80031
:102820002200200003002000607C02000000000065
:10283000307F0200000000001E009000FC6C0200CF
:10284000000000009E009000F00F2000808F5000DC
:10285000EEFF3A004A7C0200000000000004E000A5
:10286000FCFF32000E80E800220020000300200060
:10287000607C0200000000008A023700E4E2A80049
:10288000E462A90010C0B3006670020000000000FE
:10289000146802000000000002002000A34724008A
:1028A000480B020000000000B00B02000000000016
:1028B00020079800640047008040EB0022002000C1
:1028C00003002000DE7D02000000000075023700DA
:1028D000226F0200000000000E80E80022002000AD
:1028E00003002000607C0200000000001E04900035
:1028F0006140B900E60B020000000000200F9800C4
:10290000310F98000800E00008003D0002002000A0
:10291000037824002E089000BE0890003E0C0200B0
:1029200000000000200F9800310F98002E08900042
:10293000BE08900002002000A3472400F80C02000B
:1029400000000000226A02000000000010C0B30076
:10295000167002000000000052023700226F0200D1
:10296000000000000E80E80022002000030020008C
:10297000607C020000000000E4E2A800E462A9001C
:102980001E0490006140B900E60B02000000000048
:10299000000F9800110F98000800E00008003D00AB
:1029A00002002000037824000E0890009E0890008A
:1029B0003E0C020000000000000F9800110F98006C
:1029C0000E0890009E08900002002000A3472400FB
:1029D000F80C020000000000E26B020000000000A2
:1029E00040232100100798000E80E8008040EB0093
:1029F0002200200003002000DE7D02000000000015
:102A000010C0B30066700200000000000040EB0040
:102A10006670020000000000220237004B0407002D
:102A200020023700E84D0200000000002007980057
:102A30002E0090008040EB00614F98000000E00005
:102A400002003A0012C0B300624F98008040EB00D1
:102A50006E489000EC030700640047008040EB00E4
:102A60002200200003002000DE7D020000000000A4
:102A7000E13F210010C0B3008048780001C2B300DC
:102A80000040EB002E380200000000000502370075
:102A9000640047002200200003002000607C020048
:102AA00000000000AE00900050AA2500808F50006A
:102AB00007003A008040EB0010C0B300D2030700CB
:102AC000307F020000000000A90A0700F50137006E
:102AD0008040EB000040EB00CB030700F101370022
:102AE0002107070092070700EE01370011C0B3006D
:102AF0002000200000080700EA01370011C0B300E1
:102B00000000EB00FC070700E601370011C0B3002E
:102B100030002000F8070700E2013700E0ED200058
:102B2000E0D0920000C8B30000C060000004E000E4
:102B30000A003200E0ED200060D092000044B200B4
:102B40000004E000050032003F0A07000004E00036
:102B500002003200E2090700D201370011C0B300C1
:102B600040002000E4070700CE01370011C0B30089
:102B700010002000E0070700CA01370011C0B300B1
:102B800070002000DC070700C601370011C0B30049
:102B900060002000D8070700C201370011C0B30051
:102BA00050002000D4070700BE013700E03F21009D
:102BB0008040EB000148780010C0B300E27E0200C4
:102BC00000000000380A07000004E00004003200A2
:102BD0008040EB0010C0B3008B03070003003700F8
:102BE0008040EB000040EB008703070000F7200067
:102BF0008040EB004200200003002000DE7D020048
:102C000000000000A701370011C0B3000000EB0076
:102C100076080700004F78001E04E00008003A0024
:102C2000210A0700004F78001E04E0000400320073
:102C30008040EB000000EB006C080700004F7800BC
:102C40008040EB001E4078006F03070095013700BD
:102C500011C0B3001000200064080700004F780086
:102C60008040EB001E407800670307001E04E00070
:102C70008C013200307F020000000000F03F210094
:102C8000104078000004E0000400320000712200CF
:102C900001002000FA3902000000000011C0B3005A
:102CA0006000200051080700004F7800F03F21002D
:102CB000104078000004E00004003200007122009F
:102CC00001002000FA390200000000008040EB0003
:102CD0001E407800640307007201370011C0B30082
:102CE0000000EB0041080700004F78001E04E000E0
:102CF000030032005648020000000000004F780038
:102D00008040EB001E4078003F030700650137005C
:102D1000CD0907000004E0000500320011C0B30037
:102D20002000200031080700004F78000300370022
:102D300011C0B300900020006F0707008040EB0037
:102D40001E407800300307005601370011C0B30061
:102D50000000EB0025080700004F78001E04E0008B
:102D6000040032006A0047002E4602000000000006
:102D7000004F78001E04E00003003A0011C0B300C9
:102D800040002000190807008040EB001E4078003A
:102D90001D0307006A0047008040EB00420020004E
:102DA00003002000DE7D0200000000003D0137002E
:102DB000530107003B0137006A0047004200200032
:102DC00003002000607C02000000000011C0B3007E
:102DD0000000EB0005080700004F78001E04E0002B
:102DE000040032006A004700BE46020000000000F6
:102DF000004F78001E04E00003003A0011C0B30049
:102E000040002000F90707008040EB001E407800DA
:102E1000FD02070023013700806421000104200027
:102E2000FA05070010C0B300E27E020000000000B7
:102E30008040EB0010C0B300F30207001901370017
:102E4000770C0700004F78008040EB001E407800B0
:102E5000ED02070013013700640047002200200044
:102E600003002000607C02000000000010C0B300DE
:102E7000E27E0200000000002E0090000000E00052
:102E80000D00320020002000066D0200000000004E
:102E9000004F7800E1ED200061F892000000A000F2
:102EA000E0F89A00E1ED200061F892000010A00027
:102EB000E0F89A0011003700630907000004E00001
:102EC00004003A00EA48020000000000886D020099
:102ED0000000000010C0B300004F7800E1ED2000BA
:102EE00061F892000000A100E0F89A00E1ED2000F6
:102EF00061F892000010A100E0F89A008040EB0019
:102F00001E407800C0020700E600370013C0B3007F
:102F100012C0B30041C0B300000720006C0B0700D3
:102F2000004F7800903A0200000000008040EB0063
:102F30001E407800B4020700DA0037004806070098
:102F4000D80037009C080700004F78008040EB0055
:102F50001E407800AC020700D2003700F3080700DB
:102F6000004F78008040EB001E407800A60207006A
:102F7000CC003700A003210061012000A305070059
:102F800010C0B300E27E0200000000000040EB0031
:102F9000004F78008040EB001E4078009A02070046
:102FA000C00037008040EB0010C0B300960207005D
:102FB000600321008040EB0042002000030020005D
:102FC000DE7D020000000000B600370000F820009F
:102FD000010420008D050700EA5F020000000000E8
:102FE0008040EB0010C0B30087020700AD0037003F
:102FF000800521004100200084050700E0ED20004D
:10300000C0909000309090000030A000E2ED2000D1
:1030100030919800419198008040EB0010C0B300BF
:10302000790207009F0037008006200020079800E3
:10303000640047008040EB002200200003002000D5
:10304000DE7D0200000000008040EB0010C0B300F5
:103050006D02070000FC20008040EB00820620008B
:1030600003002000DE7D0200000000008D0037001C
:10307000A20307008B0037002C03070089003700EC
:103080008D050700004F78008040EB001E4078005F
:103090005D02070083003700BB0507008100370091
:1030A0006000200020079800640047008040EB008B
:1030B0002200200003002000DE7D0200000000004E
:1030C000A66802000000000080007800E0ED20000B
:1030D000512099009C6802000000000080007800E8
:1030E000E0ED200071209900E0ED2000F02091003B
:1030F000E0ED2000612099008040EB0010C0B3009B
:1031000041020700800221008040EB0062002000A5
:1031100003002000DE7D0200000000006100370097
:103120008040EB0010C0B30037020700A0EC200085
:103130008040EB004201200003002000DE7D020001
:103140000000000057003700507E02000000000021
:1031500054003700F13F210010C0B30080487800D0
:10316000507E0200000000004E00370010C0B30087
:10317000E27E0200000000006E4A02000000000033
:103180008040EB0010C0B3001F020700450037006D
:103190008040EB0010C0B3001B02070080682100D4
:1031A0008040EB000202200003002000DE7D0200D0
:1031B000000000005041020000000000390037000C
:1031C0006001200020079800640047008040EB0069
:1031D0002200200003002000DE7D0200000000002D
:1031E0008040EB0010C0B3000702070040EB200056
:1031F0008040EB006201200003002000DE7D020021
:1032000000000000270037005C0B07002500370096
:10321000EB0B0700230037008E6202000000000065
:10322000800078000040EB00004F78000100E000D3
:1032300002003A0010C0B300004F78008040EB005D
:103240001E407800F001070016003700726102008E
:1032500000000000004F78008040EB001E40780026
:10326000E90107000F0037005E6202000000000065
:10327000004F78008040EB001E407800E20107001C
:10328000080037000001EB00910020000000EB0077
:10329000A03B0200000000008040EB000040EB007B
:1032A000D9010700307F0200000000000000EB00A1
:1032B00010079800E03F2100104078000004E00073
:1032C00005003A000001EB00810020001000200002
:1032D000A03B02000000000010C0B300B83902009B
:1032E000000000004A7C0200000000000004E00032
:1032F00009FB3A004F0478000080FA000000060045
:103300002E00FA000040EB00404F98000040EB0018
:10331000304F98000040EB00204F98000040EB0039
:10332000104F98000040EB00004F98000000EB00A9
:10333000300798000040EB00006F98000040EB0061
:10334000404798000040EB00304798000040EB00F9
:10335000204798000040EB00104798000040EB0029
:10336000004F7800E0ED200000889000A0A09000C1
:1033700031079800E0ED20003038910010479800A8
:103380003E009000E90F500003003A0010C0B30067
:10339000404798000D003700BE009000200220003A
:1033A000808F500003003A0010C0B30030479800EF
:1033B00006003700BE00900040022000808F5000C1
:1033C00002003A0010C0B300204798001E40900051
:1033D000E14F500007003A004E409000E14F50008E
:1033E00004003A000040EB004047980010C0B300D2
:1033F0003047980072004700420020000300200080
:10340000607C0200000000006E00470042002000C7
:1034100003002000607C0200000000006002200029
:103420000E0040002200200003002000607C02000B
:10343000000000003E109000610060000004E00009
:103440000200320010C0B300204F98003E109000E0
:103450000000D100610060000004E00002003200C2
:1034600010C0B300104F98003E1090004200DE00E4
:10347000610060000004E0000200320010C0B300F0
:10348000004F98003E1090004300DE006100600095
:103490000004E0000200320010C0B300004F7800CA
:1034A0001E4890000004E00005003200760047004E
:1034B0004200200003002000607C020000000000A9
:1034C000E0ED200000909000E60F500002003A006E
:1034D00010C0B300404F98004E4890000004E00038
:1034E00007003A00E0ED200060D0920068406000E4
:1034F0000004E0000200320010C0B300304F98001A
:103500004E4890000004E0001E0032007E00900053
:103510008E089000F2FF2F00F3FF210000027800D8
:1035200081027800020078008300780000016200C8
:10353000018062006102B800541798006517980076
:103540005E109000EE109000C000DD000000200032
:1035500050179800611798005E109000EE109000D0
:103560006112B80054179800651798005E1190001A
:10357000EE119000020070008380700070079800C8
:10358000010F980011C0B3000000EB001706070000
:10359000504F98005E4890000004E00003003200A5
:1035A00010C0B300E27E0200000000005E48900000
:1035B0000004E0007E0032004E4090000004E00075
:1035C0007B003A003E4090000004E00078003A00A2
:1035D0002E4090000004E00075003A003E48900044
:1035E0000004E000030032002E4890000004E000D8
:1035F0000A003A001E099000AE0990007E03900078
:103600008E0B90007A004700000278000600BE0092
:103610004846020000000000504F98002E489000DD
:103620000004E000CC0032004E4890000004E000AE
:1036300013003A005E4890000004E00010003200E1
:103640005E4890000004E000040032006E00470075
:10365000BE46020000000000504F98005E489000F7
:103660000004E0000E003200200220000E004000A6
:103670002E46020000000000504F9800080037005E
:103680005E4890000004E0000500320020022000A7
:103690000E0040002E46020000000000504F98002F
:1036A0007E0190008E0990001E109000AE109000D8
:1036B000800F5100818F590005003A005E4890004C
:1036C0000004E0000200320010C0B300504F980028
:1036D0005E4890000004E000240032003E48900064
:1036E0000004E00004003A00564802000000000018
:1036F000504F98001D003700F20047006033B800BB
:10370000440020000500200002F8200003002000F3
:10371000C0C0B300F246020000000000504F980005
:103720005E4890000004E0000A003200F600470006
:103730006033B800440020000500200042F820005B
:1037400003002000C0C0B300F246020000000000E9
:10375000504F98005E4890000004E00003003200E3
:103760006A48020000000000504F98005E48900038
:103770000004E000780032003E4890000004E000C1
:1037800075003A005E099000EE0990007E039000FB
:103790008E0B900072004700000278000600BE0009
:1037A0004846020000000000504F98006A003700B1
:1037B0005E4890000004E000270032004E40900078
:1037C000E14F500024003A001E099000AE0990001D
:1037D0007E0390008E0B90007A0047000002780074
:1037E0000600BE004846020000000000504F98004E
:1037F0002E489000E14F50000300320013C0B30088
:103800009ECF110054003A005E4890000004E00092
:10381000030032005648020000000000504F98009C
:103820005E4890000004E0004B0032005E0990000A
:10383000EE0990007E0390008E0B9000720047000E
:10384000000278000600BE004846020000000000AA
:10385000504F9800400037005E4890000004E000A0
:103860003D0032003E409000E14F50000300320026
:103870002E409000E14F500037003A002E48900053
:103880000004E0000D003A001E04E0000B003A00C6
:103890001E099000AE0990007E0390008E0B9000F0
:1038A0007A004700000278000600BE004846020089
:1038B00000000000504F98002700370080022000D1
:1038C0000E004000AC0A0700504F98005E48900080
:1038D000E14F500020003A000E6890000004E00024
:1038E00003003A005648020000000000504F9800C4
:1038F0005E489000E14F500017003A001E0890000B
:10390000AE0890006F0A0700504F98005E48900084
:10391000E14F500010003A00380A0700504F98005D
:103920005E4890000004E0000B0032002E4890003A
:10393000E14F500003003A0056480200000000002A
:10394000504F980014C0B3009E4F120002003A007E
:1039500010C0B300504F98008040EB005E489000CC
:10396000290007007A0047008040EB004200200059
:1039700003002000DE7D0200000000000E489000E1
:103980000004E000070032007A00470064004000B5
:103990008040EB004200200003002000DE7D02009A
:1039A000000000000080FA00000006000000FA009D
:1039B0000001EB00E103200010002000A03B02000A
:1039C000000000000001EB00F103200010002000C7
:1039D000A03B0200000000000001EB0001042000F9
:1039E00010002000A03B020000000000BE5F0200AB
:1039F0000000000060042000DE3E02000000000025
:103A00000080FA00000006000400FA002047980039
:103A1000314798003E4090000004E0000200320070
:103A2000307F0200000000002E4090000004E00003
:103A3000030032000000EB00000F780002003700A6
:103A4000F00F2000000F78000E0078008040EB009F
:103A50002200200003002000DE7D020000000000A4
:103A60000080FA00000006000800FA006047980095
:103A7000714798000040EB00404798007E4090005E
:103A80000004E00002003200307F0200000000006D
:103A90006E4090000004E000030032000000EB00E4
:103AA0001007980002003700F00F20001007980060
:103AB0000E80E8008040EB00220020000300200080
:103AC000DE7D02000000000040C3B300004F78001C
:103AD00007003700640047008040EB001200200020
:103AE00003002000DE7D0200000000001E4FE90000
:103AF0001E04E000F7FF3A000080FA000000060014
:103B00000600FA0010079800414798000040EB00BB
:103B1000004F780007003700640047008040EB004A
:103B20001200200003002000DE7D020000000000E3
:103B30001E4FE8009E80FB001E009000808F50000A
:103B4000F5FF39000080FA00000006000A00FA00C4
:103B50000E80E8004200200003002000607C02008C
:103B60000000000066004700420020000300200023
:103B7000607C0200000000003E019000CE01900039
:103B80001E009000AE00900044000700104798000F
:103B90001E4090000004E0000B0032003E00900048
:103BA000CE009000610160006000B80003002000BA
:103BB00002007000838070000000E000020032000C
:103BC0000040EB00104798008040EB001E40900042
:103BD0008DFF0700307F0200000000000040EB0076
:103BE0001A6F020000000000146F020000000000C5
:103BF0001E4090000004E000210032003E019000D1
:103C0000CE0190001E009000AE0090001A9D0200B0
:103C100000000000104798008040EB001E4090001C
:103C200079FF0700307F0200000000001E40900076
:103C30000004E00017003200CD42A900CD62A800C8
:103C40002E44020000000000004F780020C0B300A6
:103C50009E4F100002003A0086360200000000006D
:103C600000242400F1002000FA39020000000000C6
:103C7000EA370200000000000000FE0005003700E7
:103C80008040EB000040EB005FFF0700307F020048
:103C9000000000000080FA00000006000A00FA00A0
:103CA000008FBE0022079800330798002E00900076
:103CB000BE00900032002000030020007C0D0200B6
:103CC00000000000000040008180480020079800AC
:103CD0003107980000002F0001002000BE0F1000E7
:103CE000AE8F18000C003A002E009000BE0090002D
:103CF0003E014000AE81480000002A002100200063
:103D0000800F5100818F590003003E0010002000F9
:103D100040079800020037000000EB0040079800C1
:103D20004E0090000080FA00000006001200FA0029
:103D3000680047002200200003002000607C020091
:103D4000000000006A00470042002000030020003D
:103D5000607C0200000000006E004700420020006E
:103D600003002000607C0200000000005E00900064
:103D7000EE009000DC5F020000000000CE0090002A
:103D800000022000808F50000D003A000000240047
:103D9000CF80DE00E2ED20007039980001819800AC
:103DA000E0ED20008080900070389000E2ED20006F
:103DB000208198003181980020F62000D0B688003C
:103DC0005E019000EE0190004E0090008E80E800B1
:103DD0004654020000000000004F780010C0B300FD
:103DE0009E4F100042003A007E0190008E09900024
:103DF0001E039000AE0390004E0090000202BE0031
:103E00000601BE005A58020000000000004F780072
:103E100010C0B3009E4F100030003A001E0090000A
:103E2000AE009000E6360200000000001E01900087
:103E3000AE0190004E009000004378006E004700F5
:103E4000EA0047000202BE0080017800010178000C
:103E50008640780020C0B30065010700004F78005D
:103E60001E009000AE009000E63602000000000048
:103E70007E0090008E0890008A5E02000000000024
:103E8000300798008040EB001E407800DEFE0700FF
:103E90001E04E000140032001E009000AE009000EE
:103EA000E6360200000000007E0190008E099000BE
:103EB0008040EB000000EB00DE7D0200000000000F
:103EC000660047008040EB00220020000300200035
:103ED000DE7D020000000000030037008040EB00A0
:103EE0000040EB00C8FE0700307F02000000000029
:103EF0001E80FB000080FA00000006002600FA0089
:103F00000000EB00100F98006000B80060079800F8
:103F1000710798006000B800008FBE007C00470069
:103F20002200200003002000607C0200000000004E
:103F30007E0047004200200003002000607C020059
:103F400000000000200220000E004000420020007F
:103F500003002000607C0200000000007E0890004A
:103F60008E109000DC5F020000000000E0ED2000F9
:103F7000C0809000010F9800E0ED2000408090008C
:103F8000E10F500003003A00E1ED20002000200086
:103F9000C08098007E0990008E1190006E089000FD
:103FA000F600470046540200000000004057980009
:103FB0004E509000E14F500004013A00E0ED200027
:103FC0000E099000428098008040EB0010C0B300C2
:103FD0008DFE0700307F0200000000006E08900098
:103FE000E70F5000030032006E089000E80F500009
:103FF00011003A006E089000E70F50000B003A00E5
:10400000E0ED2000F088900060889000E00F500004
:10401000E08F580005003A007E0890008E10900056
:10402000E2ED200060899800718998006000B80076
:10403000700F9800011798003E089000CE0890007D
:10404000E636020000000000E0ED20004080900015
:10405000E10F5000060032006E089000E70F50009C
:10406000030032006E089000E80F500070003A0024
:10407000E0ED20008080900070389000E63602006D
:10408000000000006E089000EF0F500001003A00A1
:1040900000000000E0ED2000C0819000030F9800B8
:1040A000E1ED200020002000C08098007E099000F3
:1040B0008E1190006E089000F600470046540200F2
:1040C00000000000E0ED20008E0890004180980084
:1040D0003E099000CE0990006E089000DA7A020046
:1040E000000000003E099000CE0990006207980091
:1040F000730798001E109000AE10900040079800C3
:10410000510798002F0037001E119000AE1190004B
:104110000060200001002000800F5100818F5900B5
:10412000040036000060200001002000008FBE0067
:10413000030037001E119000AE119000028FBE00E8
:10414000E0ED20008080900070389000E63602009C
:10415000000000001E01BE000000EB00607C0200B9
:1041600000000000E0ED200080809000703890009A
:10417000000178001E02BE006E009000FE0090005C
:104180005C73020000000000405798006E00900031
:10419000FE0090003E014000AE8148000200BE00DB
:1041A00060079800710798001E109000AE109000F4
:1041B0003E015000AE8158000200BE00101798006A
:1041C000211798004E5090000004E00005003200D6
:1041D0001E109000AE109000E00F5000E08F5800CD
:1041E000C9FF3A004E5090000004E0003500320054
:1041F0004E009000DE0090001017980021179800E4
:104200003E099000CE09900062079800730798005D
:104210001E109000AE1090006E019000FE01900004
:104220002A7A020000000000100F980025003700D5
:104230006000B80020079800310798000C00370094
:104240002E009000BE00900002002400800041007B
:1042500000C0EB00804878002E009000BE00900067
:1042600061004000E0804800200798003107980076
:104270002E019000BE019000F07F20000100200080
:10428000800F5100818F5900EDFF36001E11900004
:10429000AE1190000000EB00607C02000000000006
:1042A0003E089000CE089000E636020000000000B4
:1042B0001E109000AE1090008A5E02000000000008
:1042C000100F98007A004700220020000300200011
:1042D000607C020000000000DE0890001E089000D4
:1042E000008040000000E000030032000040EB00CE
:1042F00040579800350037006E089000EE0F5000D0
:104300000C003200EE08900000022000808F500068
:10431000080032003E089000CE089000605E020067
:10432000000000000004E00002003200725D0200A4
:10433000000000006E089000E70F500009003A00EE
:104340001E109000AE10900080007800E0ED20007C
:1043500001209800E1ED2000714090000000A000D5
:10436000F04098006E089000E80F500009003A00F5
:104370001E109000AE10900080007800E0ED20004C
:1043800041189800E1ED2000614090000070A0000D
:10439000E04098003E099000CE0990006E08900021
:1043A00000437800200220000E004000FE0047007D
:1043B0000202BE008001780001017800864078008A
:1043C00010C0B3000A000700405798008040EB007F
:1043D0004E5090008CFD0700307F0200000000006E
:1043E0004E5090000080FB000080FA0000000600A4
:1043F0000C00FA00204798003147980022079800E7
:1044000033079800440798005507980010C0B30080
:10441000004F78003E0090001000BE00E00F5000FA
:10442000E08F5800750032002E409000E14F5000A0
:1044300039003A003E409000EC4F50000C00320032
:104440003E409000ED4F5000090032003E40900089
:10445000FF4F5000060032003E409000F04F5000E9
:10446000030032003E409000F14F50001A003A0025
:104470008040EB000000EB005C020700004F78007A
:104480001E04E0005E00320010C0B300E27E0200B5
:10449000000000003E0090001002BE002E009000C0
:1044A0001001BE004E039000DE0390008000EB0080
:1044B0003E409000F246020000000000004F7800ED
:1044C0001E04E0004E003A0011C0B300400020007E
:1044D000460207004A003700BE40900000C2B30009
:1044E00080CF500046003A00E0ED20008080900030
:1044F00070389000000178000420200005002000A2
:1045000000E02000010020005C73020000000000B9
:10451000004F78003A0037003E409000EC4F5000CA
:104520000C0032003E409000ED4F50000900320078
:104530003E409000FF4F5000060032003E40900089
:10454000F04F5000030032003E409000F14F500009
:104550001A003A008040EB000000EB002302070045
:10456000004F78001E04E0002500320010C0B300A8
:10457000E27E0200000000003E0090001002BE003B
:104580002E0090001001BE004E039000DE0390004C
:104590008000EB003E409000364702000000000023
:1045A000004F78001E04E00015003A0011C0B3006F
:1045B000400020000D02070011003700BE409000AF
:1045C00000C2B30080CF50000D003A00E0ED2000A3
:1045D0008080900070389000000178000420200056
:1045E0000500200000E02000010020003A720200D7
:1045F00000000000004F78000100370000000000BC
:104600001E80FB000080FA00000006000800FA008F
:1046100020079800310798000E80E8002200200053
:1046200003002000607C0200000000009E0090005B
:104630003E009000808F500003003A003E00900042
:10464000000F7800090037009E0090003E009000A7
:10465000808F5000030031001E009000000F780092
:10466000020037003E009000000F78001E00780026
:104670006101B8002E009000607C02000000000084
:104680001E0090009E0F5000090036001E00900092
:104690001E0F500002003700787C0200000000006E
:1046A0001E0FE9000080EB009E0F1000FAFF3A0099
:1046B0000080FA00000006000600FA0010C0B300F7
:1046C00020479800640047002200200003002000DB
:1046D000607C0200000000002E009000000F7800B7
:1046E000001F20009E0F100004003600001F200055
:1046F000000F78000040EB00204798001E00780073
:104700006101B80020062100607C0200000000006A
:104710002E0090001E005000200798000200370075
:10472000787C0200000000002E0090000000E900EC
:10473000200798002E009000E10F4000F8FF3A009B
:104740009E007800678060000000E00002003200F8
:104750000040EB00204798002E4090000080FB00B6
:104760000080FA00000006000000FA002006210088
:10477000021F20008000EB000C0B02000000000074
:104780000080FA00000006001400FA0066004700EE
:104790002200200003002000607C020000000000D6
:1047A000680047002200200003002000607C020017
:1047B000000000000000EB00100798002200370006
:1047C0006A0047002200200003002000607C0200F5
:1047D000000000006C0047004200200003002000A1
:1047E000607C0200000000007000470042002000D2
:1047F00003002000607C0200000000000000EB00CD
:10480000000F780006003700640047001200200007
:1048100003002000607C0200000000001E0FE80082
:104820001E0078006101B8000E0890009E089000FC
:10483000800F5100818F5900F3FF39001E00900056
:104840000000E80010079800BE0090001E009000D5
:10485000810F5000DAFF39000080FA0000000600E6
:104860000E00FA006A00470042002000030020000A
:10487000607C02000000000066004700420020004B
:1048800003002000607C02000000000010C0B300A4
:10489000E27E02000000000011C0B3000000EB0047
:1048A00052010700004F78001E04E0000A003200A9
:1048B0003E019000CE0190005E039000EE03900058
:1048C0000E80E800000278000600BE0048460200A4
:1048D00000000000004F78001E04E00003003A00D2
:1048E00011C0B30040002000400107001E04E0009A
:1048F00003003A0011C0B300400020003B01070054
:104900008040EB001E4078003FFC07000E80E8006E
:104910008040EB004200200003002000DE7D02000A
:10492000000000001E80FB000080FA00000006006E
:104930000C00FA0010C0B300204798006600470042
:104940002200200003002000607C02000000000024
:10495000E0ED2000F08090003E009000808F50003D
:104960005E003E00E0ED2000F08090003E009000F0
:10497000808F5000050036000000EB0030079800E3
:104980003E009000000F780008003700BE00900045
:10499000E0ED20007080900000805000300798000B
:1049A000E0ED2000F0809000010F7800EE4502005D
:1049B000000000008040EB002E40900012FC070039
:1049C000307F0200000000001E0078006101B80086
:1049D000E0ED200000889000607C020000000000F4
:1049E0000000EB0020079800170037003E00900001
:1049F000E10F5000090032006A0047002200200049
:104A000003002000607C0200000000003E009000D7
:104A10000080E9003007980007003700787C02002A
:104A2000000000000080FB00500798003E0090004E
:104A30000000E900300798005E009000AE00900092
:104A400000804000200798003E0090000000E00039
:104A5000E6FF3A0068004700220020000300200023
:104A6000607C020000000000E0ED2000F08090007B
:104A7000E0ED200000889000485F02000000000088
:104A8000800078002E009000010040002007980070
:104A9000CE0090002E009000008040000000E0005A
:104AA000030032000040EB00204798000D00370063
:104AB000064802000000000020479800885F0200BE
:104AC000000000000001EB00910420001000200015
:104AD000A03B020000000000020037000040EB0095
:104AE000204798008040EB002E409000C6FB070056
:104AF0000080FA00000006000A00FA001007980083
:104B00004147980010C0B300104798000040EB00E8
:104B1000004F78004C0207000004E0000100320062
:104B20002D02070010C0B300124102000000000077
:104B300010C0B300C43F0200000000004E409000CF
:104B40000004E0000300320010C0B300E27E020067
:104B5000000000000001EB00010320001000200015
:104B6000A03B020000000000B23F02000000000075
:104B700090042000DE3E0200000000000004E0007F
:104B80006C003A001E4090000004E0006600320015
:104B9000F0002000383E0200000000001E009000DF
:104BA0006101B80032079800430798009000200088
:104BB000010020003E019000CE019000800F5100C6
:104BC000818F59004F003E003E009000CE009000C3
:104BD000006001002E003700290037001800370060
:104BE00013003700090037003D0037003F00370051
:104BF00041003700010037002F003700F247020064
:104C00000000000010479800400037008E47020067
:104C100000000000104798001E4090000004E000D3
:104C20003A00320010C0B300004F78003700370060
:104C3000A247020000000000104798003300370030
:104C4000E0ED2000A090900010909000E00F500048
:104C5000E08F580006003200A45D02000000000052
:104C6000104798001E4090000004E000270032002A
:104C7000DE470200000000001047980023003700C4
:104C8000B647020000000000104798001F003700E0
:104C9000A45D020000000000104798001E40900034
:104CA0000004E00019003200CA47020000000000C2
:104CB00010479800150037000040EB001670020006
:104CC000000000000071220001002000FA390200FB
:104CD0000000000010C0B300104798000B00370020
:104CE0000040EB0010479800080037000040EB0040
:104CF00010479800050037000040EB00104798006F
:104D0000020037000040EB0010479800E00220004E
:104D1000383E020000000000E1ED200061F8920042
:104D20000010A100E0F89A0080002000383E020048
:104D3000000000001E4090000004E0001700320058
:104D40005A3F020000000000804078000040EB0065
:104D5000104798000104E00002003A0010C0B300C0
:104D6000104798001E4090000004E000060032004A
:104D70000001EB00310420000000EB00A03B02002A
:104D800000000000050037000001EB004104200096
:104D90000000EB00A03B0200000000001E04E00049
:104DA00002003200725D0200000000004E409000E0
:104DB0000004E0000300320011C0B3001E40900068
:104DC00011FB07000040EB00C43F020000000000A0
:104DD0000040EB0012410200000000001E40900065
:104DE0000080FB000080FA00000006000A00FA00C4
:104DF000200798006147980010C0B3003047980022
:104E00000040EB00204798000040EB00004F780086
:104E10008D010700104798006E4090000004E000EC
:104E20000300320010C0B300E27E02000000000068
:104E30001E4090000004E0002D003A00EA48020005
:104E400000000000886D020000000000E1ED20007D
:104E500061F892000000A100E0F89A00E1ED200066
:104E600061F892000010A100E0F89A00F002200022
:104E7000383E020000000000283802000000000058
:104E8000548002000000000030002000066D020087
:104E900000000000304798003E4090000004E00011
:104EA000030032001A48020000000000304798005A
:104EB0003E4090000004E000060032000001EB00DC
:104EC000010320000000EB00A03B020000000000F6
:104ED000050037000000EB00383E02000000000033
:104EE000BE5F02000000000010C0B300004F780059
:104EF0002E009000E60F500002003200B23F020088
:104F0000000000003E4090000004E0007D00320000
:104F10002E009000400798004E009000E20F5000D5
:104F20005D0032004E009000E20F500004003E0091
:104F30004E009000E10F500008003200650037007D
:104F40004E009000E30F5000590032004E009000D8
:104F5000E60F50002A0032005E00370010C0B30098
:104F6000124102000000000010C0B300C43F020064
:104F70000000000028380200000000005A3F020034
:104F800000000000804078000040EB0030479800AF
:104F90000104E00002003A0010C0B300304798005E
:104FA00010C0B300129F02000000000010C0B30048
:104FB000EE9E0200000000007A47020000000000A0
:104FC00030479800B04002000000000020479800E1
:104FD0003E4090000004E00004003200D0042000B5
:104FE000383E02000000000046003700283802006A
:104FF0000000000054800200000000004100370063
:105000002E480200000000003047980020C0B30086
:10501000EE9E0200000000000040EB00129F020024
:10502000000000000040EB00124102000000000000
:105030000040EB00C43F020000000000B04002004E
:1050400000000000204798003E4090000004E0006F
:10505000090032005A3F0200000000008040780042
:105060000040EB00304798000104E00002003A00E5
:1050700010C0B3003047980010032000383E0200F3
:1050800000000000283802000000000054800200E8
:10509000000000001B0037009248020000000000E2
:1050A0003047980010C0B300204798001500370023
:1050B0007E480200000000003E4090000004E00036
:1050C0001000320010032000383E020000000000F3
:1050D0000C003700B040020000000000204798009C
:1050E0005A3F020000000000804078000040EB00C2
:1050F000304798000104E00002003A0010C0B300FD
:10510000304798002E4090000004E0001F0032005D
:105110003E4090000004E0001C0032000000EB0064
:10512000383E0200000000000001EB0001032000F7
:1051300010002000A03B02000000000042480200D6
:10514000000000002003200001002000FA390200C6
:10515000000000001A4802000000000030479800DC
:105160003E4090000004E000060032000001EB0029
:10517000010320000000EB00A03B02000000000043
:1051800002003700BE5F0200000000003E409000B9
:105190000004E000030032002E009000E40F5000F5
:1051A00001003A008C0007003E4090000080FB00A8
:1051B0000080FA00000006001000FA006000B8004D
:1051C00030079800410798006E0047002200200039
:1051D00003002000607C0200000000000E00E800D8
:1051E0001200200003002000607C0200000000008C
:1051F0007E0090000000E9000100200050079800A8
:10520000610798006000B800DC5F02000000000049
:105210003E019000CE0190001E4090008E80E8007C
:105220004654020000000000004F780010C0B30098
:105230009E4F100027003A005E009000EE009000A4
:105240001E019000AE0190001E4390000002BE00BF
:10525000064078005A58020000000000004F780015
:1052600010C0B3009E4F10001A003A001E009000BC
:10527000AE009000E6360200000000005E019000E3
:10528000EE0190000000EB00607C020000000000D6
:105290005E009000EE00900080007800E0ED2000BD
:1052A000113898001E009000AE0090009E439000C0
:1052B0006A014700660347000002BE0082017800D1
:1052C000060178008740780010C0B30048FC070052
:1052D000004F78001E80FB000080FA0000000600EE
:1052E0000200FA0011C0B3000000EB00BFFE07008F
:1052F000004F78001E04E00003003200064902005F
:1053000000000000004F78001E04E00002003200A0
:10531000725D0200000000008040EB001E4078003B
:10532000B9F907000080FA00000006000A00FA0040
:1053300010C0B300004F78000E80E800810020000C
:10534000B2FC07000E80E8001000BE0061016000A2
:105350006000B8000300200002007000838070002D
:105360000000E00005003200E1ED200061D0920075
:105370000050A000E0D09A0004003700E1ED2000CA
:1053800061D092000050A100E0D09A000E80E800A9
:105390001000BE008100D1000080D30061006000D9
:1053A0000004E00005003200E1ED200061D0920031
:1053B0000070A000E0D09A0004003700E1ED20006A
:1053C00061D092000070A100E0D09A001E80FB0026
:1053D0000080FA00000006000000FA009248020077
:1053E000000000000001EB0001032000100020007D
:1053F000A03B0200000000000000EB00383E02006D
:10540000000000004248020000000000886D020019
:10541000000000000040EB00C43F0200000000005C
:105420000040EB00129F0200000000000040EB0073
:105430001241020000000000BE5F020000000000F8
:105440000080FA00000006000200FA00820020003E
:1054500003002000C0682100A83D020000000000F9
:105460000004E00007003A000202200003002000D0
:10547000C0682100A83D0200000000000004E00018
:105480000300320010002000000F780002003700F7
:105490000000EB00000F78001E4078000080FB0049
:1054A0000080FA00000006000200FA000040EB0055
:1054B000004F78008040EB00800020008EFD070048
:1054C000004F78001E04E00010003200E0ED2000E4
:1054D000205891000004E000060032000001EB00BB
:1054E000E10320000000EB00A03B020000000000F0
:1054F0000A0037000001EB00F10320000000EB0080
:10550000A03B020000000000040037001E04E00081
:1055100002003A00BE5F0200000000001E80FB0097
:105520000080FA00000006000200FA00B04002000D
:1055300000000000004F78001E04E0000A00320066
:10554000C1FF07000004E000040032008040EB00CF
:105550002000200025FE0700030037008040EB00FC
:105560009000200064FD07000080FA0000000600A3
:105570000E00FA0010C0B300204798000040EB0076
:10558000004F7800B10137000040EB00B83902004D
:10559000000000000001EB00810020000000EB0093
:1055A000A03B020000000000640047002200200031
:1055B00003002000607C0200000000000001EB00FE
:1055C0009100200010002000A03B0200000000001D
:1055D000640047008040EB00220020000300200010
:1055E000DE7D02000000000010C0B30020479800DC
:1055F00010C0B300104798002E0090006101B80061
:1056000000FD2F00F1FF2F000201400083814800C0
:105610005207980063079800100620000100200040
:105620005E019000EE019000800F5100818F5900C3
:1056300063013E005E009000EE00900000600100FB
:10564000780037007D003700820037008700370080
:10565000AB0037009800370042013700580137008F
:105660005701370056013700550137005401370004
:105670005301370052013700510137005001370004
:105680004F0137005000370052003700DF0037006D
:10569000D70037004A013700490137004801370079
:1056A0004701370046013700450137004401370004
:1056B0004301370042013700410137004001370004
:1056C0003F0137003E013700B0003700A800370027
:1056D000BE003700B6003700390137003801370007
:1056E000300137003601370035013700340137000B
:1056F0003301370032013700310137003001370004
:105700002F0137003600370038003700EF00370030
:10571000E70037002A013700290137002801370048
:105720002701370026013700250137002401370003
:105730002301370022013700210137002001370003
:105740001F0137001E013700C0003700B8003700C6
:10575000CE003700C60037001901370018013700A6
:105760001701370016013700150137001401370003
:105770001301370012013700110137001001370003
:10578000DB003700EC0037000D0137000C0137005B
:105790000B0137000A013700090137000801370003
:1057A0000901370006013700050137000401370001
:1057B0000301370002013700010137000001370003
:1057C000F2003700F40037000040EB00204798005B
:1057D000FD0037000040EB0020479800FA0037003A
:1057E0000040EB0020479800F70037008040EB00B6
:1057F0000040EB0084F807000040EB00004F9800E9
:10580000680047008040EB001200200003002000E9
:10581000DE7D0200000000000040EB001047980011
:10582000E900370011C0B30010C0B300EE51020010
:105830000000000020479800E300370011C0B300CB
:105840000040EB00EE5102000000000020479800ED
:10585000DD0037008040EB000040EB00EE5102001D
:105860000000000020479800D7003700660047007E
:105870002200200003002000607C020000000000E5
:105880003E0090006101B80000A02100607C020091
:105890000000000010C0B300E27E02000000000023
:1058A000BE00900000A02100D652020000000000BF
:1058B00020479800C40037006600470022002000FF
:1058C00003002000607C0200000000003E00900009
:1058D0006101B80000A02100607C0200000000000F
:1058E00010C0B300E27E02000000000000A0210012
:1058F000825302000000000020479800B2003700E9
:10590000660047002200200003002000607C0200A7
:105910000000000010C0B300E27E020000000000A2
:10592000BE00900000A021005852020000000000BC
:10593000204798008040EB002E40900032F807008E
:105940002E4090000004E000060032003E0090006F
:105950006101B8008040EB0000A02100DE7D020064
:10596000000000000040EB00104798009600370050
:105970008041EB0012C0B30001C2B3000000EB0095
:10598000D3000700204798008F0037008041EB00CC
:1059900012C0B30001C2B3000000EB001C010700FD
:1059A000204798000040EB00104798008600370021
:1059B0008041EB0012C0B30001C1B300000620001B
:1059C000C3000700204798007F0037008041EB00AC
:1059D00012C0B30001C1B300000620000C01070093
:1059E000204798000040EB001047980076003700F1
:1059F0008041EB0012C0B30001C1B30000052000DC
:105A0000B3000700204798006F0037008041EB008B
:105A100012C0B30001C1B30000052000FC00070064
:105A2000204798000040EB001047980066003700C0
:105A30008041EB000041EB0001C2B3000000EB002D
:105A4000A3000700204798005F0037008041EB006B
:105A50000041EB0001C2B3000000EB00EC000700C6
:105A6000204798000040EB00104798005600370090
:105A70008041EB000041EB0001C1B30000062000B3
:105A800093000700204798004F0037008041EB004B
:105A90000041EB0001C1B30000062000DC0007005C
:105AA000204798000040EB00104798004600370060
:105AB0008041EB000041EB0001C1B3000005200074
:105AC00083000700204798003F0037008041EB002B
:105AD0000041EB0001C1B30000052000CC0007002D
:105AE000204798000040EB00104798003600370030
:105AF000660047002200200003002000607C0200B6
:105B0000000000003E0090000000E00004003A00A9
:105B10000040EB0016700200000000002A00370071
:105B2000BE00900010C0B300A653020000000000A9
:105B3000204798002400370066004700220020001C
:105B400003002000607C020000000000BE00900006
:105B500010C0B300D253020000000000204798009C
:105B600019003700660047002200200003002000D3
:105B7000607C0200000000003E00900078500200AF
:105B800000000000204798000F0037003300070096
:105B9000204798000C003700490007002047980074
:105BA00009003700810220000040EB00A6530200EC
:105BB0000000000010C0B300004F78000200370062
:105BC0000040EB002047980002002800030020005E
:105BD000C0692100A83D0200000000000004E000B0
:105BE000F9FF3A001E4090000004E000030032007C
:105BF0008040EB002E40900083F70700307F0200CA
:105C0000000000002E4090000004E00001003A0077
:105C1000000000000000EB00200798000001EB00EE
:105C20008100200010002000A03B020000000000C6
:105C300010C0B300B8390200000000004A7C020026
:105C4000000000000004E0004FFE3A001E04E000E7
:105C5000FAFF32000080FA00000006000000FA009F
:105C600010C0B30004540200000000008040EB00AC
:105C700010C0B30064F70700307F0200000000008E
:105C800010C0B300E27E0200000000000200280005
:105C900003002000C0692100A83D020000000000B0
:105CA0000004E000F9FF3A000040EB000454020059
:105CB00000000000100020000080FA000000060034
:105CC0000000FA00100020000080FA00000006002A
:105CD0002C00FA00201798006167980072679800FE
:105CE000036F98000000EB00100798006400470065
:105CF0006011B8000288BE00640040006011B80066
:105D00000288BE00640040006011B8000288BE0036
:105D1000640040006011B8000288BE0064004000CA
:105D20006011B8000288BE00640040006011B80035
:105D30000288BE00640040006011B8000288BE0006
:105D4000640040006011B8000288BE00787C020048
:105D500000000000004F78009E0090001E41780077
:105D60006400470000804000024878001E00900058
:105D70000000E800100798001E04E00003003A004D
:105D80000E6890000004E000050032006E60900094
:105D90008080FB001E009000808F5000EBFF3E00D3
:105DA0002E10900050179800DE1090000100E000C7
:105DB0000500320000072000DE109000808F5000A8
:105DC000090032000F00370064014700E4002000A2
:105DD0000500200040002000010020005C7302004C
:105DE0000000000007003700640147004400200065
:105DF0000500200020012000010020005C7302004B
:105E000000000000100020000080FA0000000600E2
:105E10002A00FA001017980041679800526798000E
:105E2000636798000040EB00004F78000E80E800A8
:105E30006011B8000288BE00640040006011B80024
:105E40000288BE00640040006011B8000288BE00F5
:105E5000640040006011B8000288BE006400400089
:105E60006011B8000288BE00640040006011B800F4
:105E70000288BE00640040006011B8000288BE00C5
:105E8000640040006011B8000288BE001E1090003F
:105E900040179800CE1090000100E000050032008D
:105EA00000072000CE109000808F500009003200C3
:105EB0000F0037000E81E800E400200005002000FC
:105EC00040002000010020003A72020000000000A3
:105ED000070037000E81E800440020000500200084
:105EE00020012000010020003A72020000000000A2
:105EF0008040EB0010C0B300C3F607009E80FB009B
:105F00000E80E800008040001040780010479800A4
:105F10001E4FE8001E409000E14F400005003A008F
:105F20006E6090000004E00002003A000040EB00C8
:105F3000104798000E00E8008040EB00120020009F
:105F400003002000DE7D0200000000001E409000E3
:105F50000004E00003003A006E6090000004E000DE
:105F6000030032004E6090009E4F1000E3FF3900A6
:105F7000100020000080FA00000006000400FA0073
:105F80000000EB00000F780000022000000F7800F6
:105F90000E0078008040EB0022002000030020006B
:105FA000DE7D0200000000008040EB0010C0B30066
:105FB00095F607000000EB00000F78009E007800C7
:105FC0008062210061407800204798000100E800CD
:105FD000000F78002E409000E14F400002003A0090
:105FE0000040EB00204798000E80E8008040EB0066
:105FF0001200200003002000DE7D020000000000EF
:106000002E4090000004E000030032001E007800E3
:10601000FF0F5000E9FF36000080FA000000060084
:106020000600FA0010C0B300004F78000E80E800B0
:106030004100200075F907000E80E80042002000B2
:10604000212521001A0B0200000000000000E000E2
:1060500006003200202521008E80E8001101BE00DC
:106060000288BE0007000700004F780010C0B30090
:10607000E27E0200000000001E80FB000080FA00AB
:10608000000006000600FA0010C0B3004047980068
:10609000EA48020000000000E1ED200061F89200F3
:1060A0000000A100E0F89A00E1ED200061F8920004
:1060B0000010A100E0F89A00226E0200000000002B
:1060C0004047980010C0B300B8390200000000003B
:1060D0004E4090000004E00032003200F0FF2F003C
:1060E00071002000008FBE0001003700000000009A
:1060F000C0032000DE3E0200000000000004E000BB
:1061000008003A000080EB008080EB001E0F40008A
:106110005E9748001E00BE00E00F5000E08F580060
:10612000F2FF3A000040EB00B83902000000000026
:106130001E00BE00E00F5000E08F58001C0032002F
:10614000E1ED200061F892000000A000E0F89A0064
:10615000E1ED200061F892000010A000E0F89A0044
:1061600020002000066D0200000000008040EB00CF
:106170008000200060FA0700886D02000000000027
:10618000E1ED200061F892000000A100E0F89A0023
:10619000E1ED200061F892000010A100E0F89A0003
:1061A000030037000040EB00B83902000000000097
:1061B0004E4090000080FB000080FA0000000600C6
:1061C0000200FA008040EB0010C0B3000EF607009A
:1061D0000E00780030620200000000001E0078000F
:1061E0008040EB008208200003002000DE7D0200DA
:1061F000000000000080FA00000006000800FA001D
:106200000040EB0040479800880007001007980006
:1062100080C0B300004F78001E0090006101B800FC
:10622000E50047006033B80014002000050020009E
:10623000D0C0B3003647020000000000404798007D
:106240004E4090000004E00004003A004E409000F0
:106250000080FB0030079800170037005E40900078
:106260001E407000504798001E0090006101B80069
:10627000E50047006033B80014002000050020004E
:10628000D0C0B300F2460200000000004047980072
:106290004E4090000004E00004003A004E409000A0
:1062A0000080FB0030079800030037004E4090004C
:1062B0000080FB00300798003E0090000080FA004C
:1062C000000006000800FA00200798000040EB00DC
:1062D0002047980061000700000F78001E0078003A
:1062E0006101B800E40047006033B80024002000DA
:1062F00005002000D0C0B300F246020000000000FC
:10630000204798002E4090000004E00004003A006E
:106310002E4090000080FB003007980003003700FB
:106320002E4090000080FB00300798003E00900057
:106330000080FA00000006000400FA001007980030
:1063400046000700000F78001E0078006101B800C9
:106350006033B80024002000050020009E0090005B
:10636000D0C0B30036470200000000000080FB00F0
:106370000080FA00000006000A00FA0030079800CA
:106380000040EB00404798002E00070010079800DF
:1063900038000700004F78001E0090006101B8002F
:1063A000E50047006033B80014002000050020001D
:1063B000D0C0B300364702000000000040479800FC
:1063C0004E4090000004E00007003A003E009000BC
:1063D0008040EB00014878004E4090000080FB00B8
:1063E000400798000E0037005E4090001E4060009D
:1063F0009E4F500004003A00BE00900010C0B30051
:106400008048780003003700BE0090000040EB0099
:10641000804878004E4090000080FB0040079800C4
:106420004E0090000080FA00000006000200FA0012
:10643000D0F82000000F78001E0078000080FA00DD
:10644000000006000200FA0010F92000000F78009A
:106450001E0078000080FA00000006000200FA002A
:1064600060F92000000F78001E0078000080FA001C
:10647000000006000200FA0000C8B300004F7800D8
:106480001E80FB000080FA00000006003600F800C5
:10649000809FBE00829FBE00849FBE00869FBE007C
:1064A0000800FA0042C0BF000080FB004500DE008B
:1064B0000080FB00300798009002800010079800D1
:1064C000FF3FFC0042C0BF007F40600001CCB30032
:1064D0000140700042E0B7001E009000900288006A
:1064E000B1B680000000EB0080087800A0018000B9
:1064F0002007980010002000A001880084E0A90077
:10650000E8710200000000000462020000000000C8
:106510000004E00011003200309F80000000E8001D
:10652000309F8800319F8000409F8000808F500006
:106530000B0036000000EB00309F8800CDC2BF008A
:10654000624060000004E00002003200CD22A90099
:1065500003003700CD22A80001003700CD22A8009B
:106560001A620200000000000004E0006F00320028
:10657000CD22A900509F80000000E800509F8800B5
:10658000519F8000609F8000808F50006700360020
:10659000209F80000000E800209F8800C09F8000AE
:1065A000E10F50000E003A00209F8000E10F5000E4
:1065B0000B003E000000EB00509F8800CDC2BF00E2
:1065C000644060000004E00003003200CD42A900F6
:1065D000CD62A9000A003700CD42A80008003700AC
