:020000040000FA
:10000000A0020400000000002408000028080000EE
:100010002C080000300800003408000038080000F8
:100020003C080000400800004408000048080000A8
:100030004C08000050080000540800005808000058
:100040005C08000060080000640800006808000008
:100050006C080000700800007408000078080000B8
:100060007C08000080080000840800008808000068
:100070008C08000090080000940800009808000018
:100080009C080000A0080000A4080000A8080000C8
:10009000AC080000B0080000B4080000B808000078
:1000A000BC080000C0080000C4080000C808000028
:1000B000CC080000D0080000D4080000D8080000D8
:1000C000DC080000E0080000E4080000E808000088
:1000D000EC080000F0080000F4080000F808000038
:1000E000FC080000000900000409000008090000E5
:1000F0000C09000010090000140900001809000094
:100100001C09000020090000240900002809000043
:100110002C090000300900003409000038090000F3
:100120003C090000400900004409000048090000A3
:100130004C09000050090000540900005809000053
:100140005C09000060090000640900006809000003
:100150006C090000700900007409000078090000B3
:100160007C09000080090000840900008809000063
:100170008C09000090090000940900009809000013
:100180009C090000A0090000A4090000A8090000C3
:10019000AC090000B0090000B4090000B809000073
:1001A000BC090000C0090000C4090000C809000023
:1001B000CC090000D0090000D4090000D8090000D3
:1001C000DC090000E0090000E4090000E809000083
:1001D000EC090000F0090000F4090000F809000033
:1001E000FC090000000A0000040A0000080A0000E0
:1001F0000C0A0000100A0000140A0000180A00008F
:10020000FFFFFF00FFFFFF0024F0000028F00000C8
:100210002CF0000030F0000034F0000038F0000056
:100220003CF0000040F0000044F0000048F0000006
:100230004CF0000050F0000054F0000058F00000B6
:100240005CF0000060F0000064F0000068F0000066
:100250006CF0000070F0000074F0000078F0000016
:100260007EF0000080F0000084F0000088F00000C4
:100270008CF0000090F0000094F0000098F0000076
:100280009CF00000A0F00000A4F00000A8F0000026
:10029000ACF00000B0F00000B4F00000B8F00000D6
:1002A000BCF00000C0F00000C4F00000C8F0000086
:1002B000CCF00000D0F00000D4F00000D8F0000036
:1002C000DCF00000E0F00000E4F00000E8F00000E6
:1002D000ECF00000F0F00000F4F00000F8F0000096
:1002E000FCF0000000F1000004F1000008F1000043
:1002F0000CF1000010F1000014F1000018F10000F2
:100300001CF1000020F1000024F1000028F10000A1
:100310002CF1000030F1000034F1000038F1000051
:100320003CF1000040F1000044F1000048F1000001
:100330004CF1000050F1000054F1000058F10000B1
:100340005CF1000060F1000064F1000068F1000061
:100350006CF1000070F1000074F1000078F1000011
:100360007CF1000080F1000084F1000088F10000C1
:100370008CF1000090F1000094F1000098F1000071
:100380009CF10000A0F10000A4F10000A8F1000021
:10039000ACF10000B0F10000B4F10000B8F10000D1
:1003A000BCF10000C0F10000C4F10000C8F1000081
:1003B000CCF10000D0F10000D4F10000D8F1000031
:1003C000DCF10000E0F10000E4F10000E8F10000E1
:1003D000ECF10000F0F10000F4F10000F8F1000091
:1003E000FCF1000000F2000004F2000008F200003E
:1003F0000CF2000010F2000014F2000018F20000ED
:1004000091018800800078000000EB0015003700A3
:10041000E280400032A0B4009101BA00E2804000C6
:1004200032A0B4009102BA00E280400032A0B400D1
:100430000002EB00472BDE00F507B200602CE10064
:1004400004003A000059EB008301E900FDFF3E0083
:10045000040037006128E100010032000082EB0057
:10046000040007001101BA000200E000E8FF3A00B2
:10047000000006003159BA008301E9000C00320087
:100480002159BA008301E900080032000400E000AD
:1004900003003A00E280400032A0B400F5FF3700CC
:1004A00011D9BA008301E900FAFF3A008100E8009F
:1004B000E180400032A0B4000000060020FF2F00C1
:1004C00060198800C902A80000002A00210020004D
:1004D0000D000700F1EE2B00810F500006003200E6
:1004E000CBC2BF000008A3000300320020080400B4
:1004F000000000000300370083E0A80020F00400A3
:1005000000000000000006000400FA00E0BF9F00A9
:10051000F1BF9F0021032000914078006FF8970001
:1005200032E0B7006FB897001000BA008000FD00FD
:1005300032E0B7008000FD000080FA0000000600F5
:100540000F802000007F24000001880000000000D0
:100550005E020200000000000040DA000000FE0021
:100560000040DA000000FE0000000000FFFFFF0076
:10057000FFFFFF00FFFFFF00FFFFFF00FFFFFF0087
:10058000FFFFFF00FFFFFF00FFFFFF00FFFFFF0077
:10059000FFFFFF00FFFFFF00FFFFFF00FFFFFF0067
:1005A000FFFFFF00FFFFFF00FFFFFF00FFFFFF0057
:10100000501A000000020000000000000000000074
:10101000FFFFFF00FFFFFF00FFFFFF00FFFFFF00DC
:10102000FFFFFF00FFFFFF00FFFFFF00FFFFFF00CC
:10103000FFFFFF00FFFFFF00FFFFFF00FFFFFF00BC
:101040003E400400000000007C0E04000000000090
:101050000A110400000000000E110400000000004E
:10106000121104000000000016110400000000002E
:101070007C0E0400000000007C0E04000000000054
:101080007C0E0400000000007C0E04000000000044
:101090007C0E0400000000007C0E04000000000034
:1010A0003E1E0400000000007C0E04000000000052
:1010B0007C0E0400000000007C0E04000000000014
:1010C0009E0F0400000000007C0E040000000000E1
:1010D0007C0E0400000000007C0E040000000000F4
:1010E0007C0E0400000000007C0E040000000000E4
:1010F00020180400000000007C0E04000000000026
:101100007C0E0400000000007C0E040000000000C3
:101110007C0E0400000000007C0E040000000000B3
:1011200080100400000000007C0E0400000000009D
:101130007C0E0400000000007C0E04000000000093
:101140007C0E0400000000007C0E04000000000083
:101150007C0E0400000000007C0E04000000000073
:101160007C0E040000000000561004000000000087
:101170007C0E0400000000007C0E04000000000053
:101180007C0E0400000000007C0E04000000000043
:101190007C0E0400000000007C0E04000000000033
:1011A0007C0E0400000000007C0E04000000000023
:1011B0007C0E0400000000007C0E04000000000013
:1011C0007C0E0400000000007C0E04000000000003
:1011D0007C0E0400000000007C0E040000000000F3
:1011E0007C0E0400000000007C0E040000000000E3
:1011F0007C0E0400000000007C0E040000000000D3
:101200007C0E0400000000007C0E040000000000C2
:101210007C0E0400000000007C0E040000000000B2
:101220007C0E0400000000007C0E040000000000A2
:101230007C0E0400000000007C0E04000000000092
:101240007C0E0400000000007C0E04000000000082
:101250007C0E0400000000007C0E04000000000072
:101260007C0E0400000000007C0E04000000000062
:101270007C0E0400000000007C0E04000000000052
:101280007C0E0400000000007C0E04000000000042
:101290007C0E0400000000007C0E04000000000032
:1012A0007C0E0400000000007C0E04000000000022
:1012B0007C0E0400000000007C0E04000000000012
:1012C0007C0E0400000000007C0E04000000000002
:1012D0007C0E0400000000007C0E040000000000F2
:1012E0007C0E0400000000007C0E040000000000E2
:1012F0007C0E0400000000007C0E040000000000D2
:101300007C0E0400000000007C0E040000000000C1
:101310007C0E0400000000007C0E040000000000B1
:101320007C0E0400000000007C0E040000000000A1
:101330007C0E040000000000F00F0400000000001C
:101340007C0E0400000000007C0E04000000000081
:101350007C0E0400000000007C0E04000000000071
:101360007C0E0400000000007C0E04000000000061
:101370007C0E0400000000007C0E04000000000051
:101380007C0E0400000000007C0E04000000000041
:101390007C0E0400000000007C0E04000000000031
:1013A0007C0E0400000000007C0E04000000000021
:1013B0007C0E0400000000007C0E04000000000011
:1013C0007C0E0400000000007C0E04000000000001
:1013D0007C0E0400000000007C0E040000000000F1
:1013E0007C0E0400000000007C0E040000000000E1
:1013F0007C0E0400000000007C0E040000000000D1
:101400007C0E0400000000007C0E040000000000C0
:101410007C0E0400000000007C0E040000000000B0
:101420007C0E0400000000007C0E040000000000A0
:101430007C0E040000000000FFFFFF00FFFFFF0024
:10144000FFFFFF00FFFFFF00FFFFFF00FFFFFF00A8
:10145000FFFFFF00FFFFFF00FFFFFF00FFFFFF0098
:10146000FFFFFF00FFFFFF00FFFFFF00FFFFFF0088
:10147000FFFFFF00FFFFFF00FFFFFF00FFFFFF0078
:10148000FFFFFF00FFFFFF00FFFFFF00FFFFFF0068
:10149000FFFFFF00FFFFFF00FFFFFF00FFFFFF0058
:1014A000FFFFFF00FFFFFF00FFFFFF00FFFFFF0048
:1014B000FFFFFF00FFFFFF00FFFFFF00FFFFFF0038
:1014C000FFFFFF00FFFFFF00FFFFFF00FFFFFF0028
:1014D000FFFFFF00FFFFFF00FFFFFF00FFFFFF0018
:1014E000FFFFFF00FFFFFF00FFFFFF00FFFFFF0008
:1014F000FFFFFF00FFFFFF00FFFFFF00FFFFFF00F8
:10150000FFFFFF00FFFFFF00FFFFFF00FFFFFF00E7
:10151000FFFFFF00FFFFFF00FFFFFF00FFFFFF00D7
:10152000FFFFFF00FFFFFF00FFFFFF00FFFFFF00C7
:10153000FFFFFF00FFFFFF00FFFFFF00FFFFFF00B7
:10154000FFFFFF00FFFFFF00FFFFFF00FFFFFF00A7
:10155000FFFFFF00FFFFFF00FFFFFF00FFFFFF0097
:10156000FFFFFF00FFFFFF00FFFFFF00FFFFFF0087
:10157000FFFFFF00FFFFFF00FFFFFF00FFFFFF0077
:10158000FFFFFF00FFFFFF00FFFFFF00FFFFFF0067
:10159000FFFFFF00FFFFFF00FFFFFF00FFFFFF0057
:1015A000FFFFFF00FFFFFF00FFFFFF00FFFFFF0047
:1015B000FFFFFF00FFFFFF00FFFFFF00FFFFFF0037
:1015C000FFFFFF00FFFFFF00FFFFFF00FFFFFF0027
:1015D000FFFFFF00FFFFFF00FFFFFF00FFFFFF0017
:1015E000FFFFFF00FFFFFF00FFFFFF00FFFFFF0007
:1015F000FFFFFF00FFFFFF00FFFFFF00FFFFFF00F7
:1016000082190400000000006022B80006022000D9
:101610000000D0008180D2000482D2008582D200F6
:101620000000A0000202520083825A000300310031
:101630000202420083824A000000A1000603E90082
:10164000F3FF3A0000000600889FBE008A9FBE009C
:10165000010578000100E0000400350008003C00AE
:101660000000E0002000320005003700600010009C
:10167000E080180002003B0001F02C001A00370047
:101680000004BE006011B8006B0920000982CF0081
:10169000020039000882CF000441B00069425200C4
:1016A0000E00320008003B0082817100610164007D
:1016B0008904D1000884D3008B05E8000442E800C7
:1016C000F9FF3A00050037000804440089844C0003
:1016D0008B05E9000442E900FBFF3A000A0107001C
:1016E0000AF0A70001F0A0004F05BE004F04BE00A5
:1016F00000000600889FBE008A9FBE008C1F7800F5
:10170000270107002E01330003866C006450E100BE
:10171000240032006420E100270032006150E10023
:10172000220032006120E100210032008B8542005E
:10173000EB07B1000134B800003AB80008044200D9
:1017400089844A00013AB8000030B800888040001F
:1017500009014A0004003300000040008180480075
:10176000020149008B05E900C909DD008301700011
:101770000100320013002000C814DE004814DD0010
:101780004709DE001200B200C808DE0008847000BD
:10179000DD00070001F0A1000CF0A70001F0A0009F
:1017A000100137006120E100120132000801BE0083
:1017B0000200BE00F7FF37006150E100FCFF3A0075
:1017C0000C013700889FBE008A9FBE008C1F7800E6
:1017D000F3000700FA00330003866C006450E10058
:1017E0002E0032006420E100330032006150E1003D
:1017F0002F0032006120E100310032008585550064
:10180000EB07B000090020000804200005003700A5
:101810000804440089844C000A0031000603430098
:1018200087834B000001530081815B00F8FF330088
:101830000203BE000800A0000804440089844C0094
:10184000F6FF3900C639DD00830173000100320064
:10185000130020008904D1000884D3000998A30054
:10186000050032000800A7000300A0008904D10091
:101870000884D3008B05E8008904D1000884D300D4
:101880000001EB000281D2009F00070001F0A100DF
:101890000CF0A70001F0A000D20037006420E100A6
:1018A000D40032000801BE000200BE00F7FF37007E
:1018B0006120E100CF0032006000B800F3FF370084
:1018C0000000200001F82700F0FF37000001BE00F3
:1018D000CB0007000470A70003F0A10003F8A300E9
:1018E00013003A006509B10010003200090035000C
:1018F0006928E10002003500010028000000050011
:1019000000004000818048008502E900FCFF3A00A9
:1019100000000600F88F4200050035008100D1006C
:101920000080D3008502E800FCFF3A0000000600BA
:101930008000EB000000050003F0A200889FBE00BD
:101940008A9FBE008C1F7800950007009C00330022
:101950006450E1004F0032006420E1005200320088
:1019600003826C0007003B000905D0000306D0008D
:10197000820F54000C065D000200390002003200A4
:1019800089017800030678008582550004003D0037
:101990000003FD008103FD008502EA008B85420003
:1019A000840F720002003B0060001000E08018000D
:1019B0006011B8000005EB007A28E1000A00390048
:1019C00006007800C75DDD00F707B200878075006C
:1019D0002D003700828171000A01780061056000E6
:1019E0008180D1000080D3008502E900F9FF3B002F
:1019F000060440008784480002003B006004140095
:101A0000E0841C000988A300070032008A8171006D
:101A100082817100610164008904D1000884D300CF
:101A20008B05E800170037000978A30013003A007F
:101A30000B00E000130034008B05E90008044400AB
:101A400089844C000A4474000978A3000D003A0010
:101A50000B00E000070034008B05E9000804440097
:101A600089844C0001003A000B0020000978A30093
:101A7000F7FF32000001EB000200370082817100A5
:101A80000A017800200007000CF0A70001F0A00078
:101A9000540037006420E10002003A00838F6C009C
:101AA000540033000801BE000200BE004D003700A4
:101AB000F4FF2F0067003700140020006500370096
:101AC000D1FE07000400BE0000000600839F6800EE
:101AD0000100E00002003D0060001000E0801800FE
:101AE0000300E00002003D0060011100E0811900E8
:101AF000C5FE07004F00E00002003B006000100040
:101B0000E080180000000600810020006180550080
:101B10000B003D000B00200061FE2F000100E100E2
:101B20001D00340082817100610164008904D100CC
:101B30000884D3000000E800FAFF3A00710020009A
:101B400061006400030070000200600009003200C0
:101B500061044400E0844C000988A50005003200BF
:101B60008B05E8006808E10002003A008904D10012
:101B70000884D300F20F20000258E10005003D0068
:101B8000C75DDD00F907B2008980750008007800A4
:101B9000000006000BF827008B007800000005000D
:101BA0000004BE00160007000003BE000405BE00CE
:101BB0000200BE0012000700844F750000000600FE
:101BC0000200BE006450E100050036006420E10020
:101BD000020036000968A30001003A000800BE00B8
:101BE0000160A0004F0678004F05BE004F04BE0004
:101BF00000000600F0FF2F00F1FF2700F9FF37007B
:101C0000C70ADE00F107B200F50FB200080032008B
:101C1000E1CF4200020032000170A0002400050064
:101C2000810F700001003200040805004400050027
:101C3000810F700002003A00140005008502E900DF
:101C40000000400081C04800FCFF3B000170A00084
:101C500024000500889FBE008A9FBE00841F780074
:101C6000CFFF07004F00780011003300F0FF2F0076
:101C7000838F6C0006003B00040565000A00A70086
:101C80000800370009F0A600100020000800370007
:101C9000820F5400838F5C00030039001000200085
:101CA00001003E000000200009F0A7000000EA004B
:101CB0004F05BE004F04BE000000E000000006001B
:101CC0008001EB0002003700817178008301E80099
:101CD000828F5100FCFF3A00000006008001EB00FB
:101CE0000200370061F079008301E800828F510023
:101CF000FCFF3A00000006000040DA000000FE0091
:101D0000110007000004E00002003200810007001B
:101D1000FEFF3700CD42A800CD62A90060D82300A5
:101D200001002000E611020000000000CD42A900E1
:101D3000CD62A90060D8230001002000E611020056
:101D400000000000F3FF3700881F78009102800038
:101D5000FF3FFC0042C0BF007F40600042E0B70090
:101D600091028800E0FF2000B07F8800622A020014
:101D70000000000020302300103A88000004EB002F
:101D8000283A88002600070055000700609D2200C1
:101D900001002000E6110200000000002A110200EC
:101DA00000000000A0270200000000001612020040
:101DB00000000000BA1102000000000008007800D6
:101DC000421102000000000044190200000000005F
:101DD0000004E00001003A0018C0B3000804A200AB
:101DE00088190200000000000004E00001003A0031
:101DF00000447800B2150200000000000804E00072
:101E000002003200CD42A900CD62A900C22A020020
:101E1000000000000880FB004F047800000006006E
:101E200020FF2F0060198800C922A900C962A900FB
:101E3000C942A900CD22A800CD42A800CD62A800C9
:101E4000E862A900E042A900EC62A900E442A9000E
:101E5000E862A800E402A800D842A900E002A900B4
:101E6000E422A800E022A900CC22A900DCC2A9003B
:101E7000C822A900D8C2A900D862A800D882A900A7
:101E8000D842A800DC82A900DA42A900E4A2A90095
:101E9000CCA2A900CC82A900E0A2A900E0C2A900BE
:101EA000C8A2A900C882A900E4E2A800E462A900CF
:101EB000E662A800E0E2A900E062A900C862A8000A
:101EC000C842A800D8C2A900C822A900D942A900C6
:101ED000D922A900C9C2A900D822A9000000060081
:101EE0000041EB00A0FF200002487800B0FF200076
:101EF00002487800C0FF200002487800D0FF200090
:101F00000248780021C0B300B0FF200001487800EB
:101F10000000060004003700DE2A02000000000076
:101F20005C1A020000000000E81802000000000037
:101F30000004E000F8FF3A0000000600809FBE00A9
:101F4000821F78000200FA0042C0BF004500DE0098
:101F500067006000F0BF9F0092028000FF3FFC001E
:101F600042C0BF007F40600001CCB3000140700060
:101F700042E0B70092028800B07F80000008EB00CA
:101F800041032000914078000000200034E0B700B9
:101F900084E0A900CD22A8000100780034E0B70059
:101FA00031002000B07F800001087800920280009C
:101FB000FF3FFC00FFB89700C508DD0042C0BF002E
:101FC0007F4060000140700042E0B700920288004C
:101FD0000080FA004F0178004F00BE00004006006C
:101FE0003600F800809FBE00829FBE00849FBE0026
:101FF000869FBE00881F78000200FA0042C0BF0022
:102000004500DE0067006000F0BF9F009202800084
:10201000FF3FFC0042C0BF007F40600001CCB30026
:102020000140700042E0B70092028800B07F80005B
:102030000008EB004803200018447800000020004E
:1020400034E0B700341F0200000000008EC0A90079
:102050009EC0A8000800780034E0B70031002000DE
:10206000B07F80000108780092028000FF3FFC00F2
:10207000FFB89700C508DD0042C0BF007F40600088
:102080000140700042E0B700920288000080FA0030
:102090004F0478004F03BE004F02BE004F01BE0048
:1020A0004F00BE003600F900004006003600F80080
:1020B000809FBE00829FBE00849FBE00869FBE00A0
:1020C0008780A900607780000000E00001003A00EE
:1020D0009780A90051778000E18F50000200360000
:1020E00070778000010001004F03BE004F02BE0068
:1020F0004F01BE004F00BE003600F9000040060050
:10210000809FBE00821F78004203200012417800A9
:102110000000200034E0B7008660A90011C0B300C1
:10212000400C2100014878000200780034E0B7003C
:102130004F0178004F00BE00004006000200FA0088
:102140000002780042C0BF004500DE00670060006A
:10215000F0BF9F0091028000FF3FFC0000CEB30063
:102160004260B70091028800B27F8000920178003F
:10217000E38F51000B003A00010E2000FFB99700D9
:1021800001806100810F500002003A000009EB005D
:10219000020037001000200000097800B07F8000A6
:1021A00090017800B17F8000910F12000D00320085
:1021B0000400E00003003200E10F520009003A0081
:1021C0000400370070002000F0BF9F008008EB0083
:1021D000040037000000EB00F0BF9F00100020005B
:1021E0008008780092028000FF3FFC00FFB8970053
:1021F000C508DD0042C0BF007F40600001407000A4
:1022000042E0B70092028800030078000080FA00E4
:10221000000006008020A900FFFF37008060A900B1
:10222000FFFF37008040A900FFFF37008080A90032
:10223000FFFF37008020A900FFFF37008060A90062
:10224000FFFF37008040A900FFFF37008080A90012
:10225000FFFF370000E02000000388006220EF004D
:102260008660A900ADC0BF00F1C8B30001406000A6
:102270000044A000ADE0B7006340A8009660A8004D
:10228000000006000000E00003003A00E4E2A800BD
:10229000E462A80002003700E4E2A800E462A900BA
:1022A000000006000400FA00E0BF9F00F1BF9F009D
:1022B0000000EB0000098800F00888001E61A800FB
:1022C0005377880074778800627788006FBA970028
:1022D000FFBA970000242400F1002000800F520074
:1022E000818F5A000C0036004206200003002000B7
:1022F0000400BE00040B0200000000000264200085
:102300000202B8000289B90085024100E4BF9F00C3
:10231000F5BF9F000A003700026420000220B800C9
:1023200002A9B900810041004206200003002000FC
:10233000040B020000000000E0BF9F00F1BF9F00FF
:102340007FB89700E00888006FB89700D008880031
:102350008780A900B2C0BF0081CFB30001406000F8
:102360000004A000B2E0B7009780A8000080FA0047
:1023700000000600000320008008880084E0A90017
:10238000C014250060088800A7C0BF00F1C8B300D2
:10239000014060000054A000A7E0B70094E0A8004E
:1023A0000000060011E1A800000006000000EB009C
:1023B000C0088800A00888008780A9001FE1A80045
:1023C000000006001FE1A90000000600889FBE0073
:1023D0000004BE00E00F5000E08F580011003200F2
:1023E000F8FF0700F20F5400E08F5C000200360097
:1023F00072045400E0845C000002EB008401780069
:10240000040178000800BE00A6FF07009780A9001D
:10241000E6FF070087C0BF000048A300FDFF3200B1
:102420008780A9004F04BE0000000600881F7800C6
:1024300008EF2000020220008000EB000800780076
:10244000600E020000000000080078000300070092
:102450000080FB004F04780000000600881F780011
:1024600000047800E400200005002000000178004E
:102470004000200001002000B22702000000000000
:10248000804078001840E900E34F400002003E0021
:102490000104E00004003A0000EF200082F62B0067
:1024A0000C000900325878000180FB004F047800CE
:1024B000000006000208BB000188BB000000060007
:1024C00010002400003B880050052000303B8800AD
:1024D000A00A2000303B880061E7A800000000004F
:1024E0000000000001C8B30061C7BF0001406000E8
:1024F000FDFF3A00000006000200FA00220420005E
:10250000124178004511DE0067016100F2BF9F00B3
:1025100094028000FF3FFC0022042000124178005A
:102520007F41610003CCB300034171000001FD0055
:1025300042E0B7000001FD0094028800B27F8000F5
:102540000009EB0022032000124178000282FB0008
:102550004009DE00030020000001FD0032E0B7006A
:102560000001FD0022042400023B88000008BB009B
:1025700050052000303B8800A00A2000303B880036
:1025800061E7A800000000000000000001C8B300DF
:1025900061C7BF0001406000FDFF3A000400780001
:1025A00032E0B70031002000B07F800001087800E1
:1025B00092028000FF3FFC00FFB89700C508DD00D5
:1025C00042C0BF007F4060000140700042E0B700A1
:1025D000920288000080FA00000006000200FA0063
:1025E000889FBE008A9FBE008C1F78008004780000
:1025F00042C0BF004500DE0067006000A0BF9F0032
:1026000094028000FF3FFC0042C0BF007F4060009A
:1026100001CCB3000140700042E0B7009402880092
:102620008000EB00B07F8000010878000204780091
:1026300032C0BF000086FB004019DE0002007800B7
:1026400032E0B700010578000B0420001981FB007F
:10265000194090004800DD0000017100A940900081
:102660008180FB00E38444000800780091FF0700AC
:102670000884E8000A05E8008B0F5500F3FF3A00D4
:102680008FFF07000C00780032E0B7003100200017
:10269000B07F80000108780092028000FF3FFC00BC
:1026A000AFB89700C508DD0042C0BF007F406000A2
:1026B0000140700042E0B700920288004F067800A7
:1026C0004F05BE004F04BE000080FA000000060067
:1026D00000002A002100200087FF070000F12000F1
:1026E000F1CEB30001487800E2CBB30011F1200035
:1026F0008248780021F120008048EB0002002A0087
:1027000023002000B5FF0700000006000400FA00C7
:10271000881F7800B0FB8500C1FB8500D0BF9F00FB
:10272000E1BF9F0034C0BF000084FB0010C0B300B5
:1027300034E0B70000002F0090007800A0992A0034
:10274000808F50000E003A0021002F0000FD200075
:1027500003000900315878004100B1005FB99700CB
:102760001100780091009000EFB997002F0007004A
:10277000E14F500002003A00090007000100370055
:102780000040EB000004FD0034E0B7000004FD0051
:102790000080FB004F0478000080FA000000060073
:1027A0000400FA0050C0B30034E0B70000FF290075
:1027B00090007800A0992A00808F500017003A00FE
:1027C00020FF2900E480570003000900B05878007A
:1027D0004100B1004000B100DFF8970010FD20007B
:1027E00090CF50000D003A00EFF8970020FD200038
:1027F00090CF500009003A00FFF8970030FD20000C
:1028000090CF500005003A0011C0B30000FD200039
:102810004FF99700904F5100010032008040EB00CB
:102820000180FB000080FA00000006000800FA00AA
:10283000C0BF9F00D1BF9F0064805700020878008E
:10284000F3BF9F000FFB9700BFFB97002FFA970085
:102850001FF9970010407800FFFA9700EFF99700F2
:10286000DFF89700814F510006003E0009003A0052
:1028700084CF51000300390006003A0085CF530091
:1028800004003900804F5300040031000004E000D0
:10289000020032000040EB000100370010C0B3001E
:1028A0000080FB000080FA00000006000004E00049
:1028B00002003200EC22A80001003700EC22A9003F
:1028C000E822A90000000600FF0B0900000000003C
:1028D00000000600889FBE0095A0A90085A0A90061
:1028E0000004EB000819880048198800881988003E
:1028F00000102000201988001819880021E3A80082
:10290000F1FF0700880478002023A800EEFF0700ED
:102910002023A90020C3BF000008A300FDFF320050
:1029200000188000808444000804E800F00F540080
:10293000F5FF3A000900E0000E0032006148B900DE
:10294000240B0200000000000200200003D8230036
:102950007A0B0200000000000001BE000000200011
:1029600001022400E20B020000000000A07E8800AB
:10297000B17E88002023EF004F04BE000000060057
:102980002023EF0020302000401988005000200054
:10299000101988004002210020198800000E200034
:1029A0000019880085A0A90095A0A900AAC0BF00B1
:1029B0000044A1000046B300AAE0B7002043A800ED
:1029C00021E3A800800C200001002000E611020095
:1029D000000000000000060095A0A900C07E800055
:1029E00095A0A8000000060095A0A900F07E800038
:1029F00095A0A80000000600889FBE008A1F7800EE
:102A00008C9FBE000006BE000200200003102400C0
:102A10007A0B020000000000660C020000000000BB
:102A20000004BE0000057800CF80DE00240B020009
:102A3000000000000800E00004003D00020020004B
:102A4000037824009E0C0200000000000200200019
:102A500003E02B007A0B0200000000000001BE0022
:102A60000C00BE009E0C02000000000002002000CE
:102A700003D82300580D0200000000000000E00011
:102A8000010034000A05E8000A0078004F06BE0085
:102A90004F0578004F04BE0000000600881F780034
:102AA000CDFF070000047800CF80DE00240B020079
:102AB000000000000800E00004003D0002002000CB
:102AC000037824009E0C020000000000A27E80001B
:102AD000B37E80007A0B020000000000D27D2A0045
:102AE00083EB2300E20B0200000000004F0478009B
:102AF00000000600881F7800BBFF07000004780074
:102B0000CF80DE00240B0200000000000800E0007F
:102B100004003D0002002000037824009E0C020007
:102B200000000000A27E8000B37E80007A0B0200CD
:102B300000000000127E2A0083E32300E20B020063
:102B4000000000004F04780000000600D3FF0700DB
:102B5000A9FF070000000600E6FF0700A6FF070028
:102B600000000600881F78006000B800A07E880082
:102B7000B17E880082FD20000089BE00C2FD2000D9
:102B80000089BE0002FE20000089BE0042FE200037
:102B90000089BE0082FE20000089BE00C2FE200027
:102BA0000089BE00EC62A900E442A900E862A90025
:102BB000E042A9000004EB0098088800900620007D
:102BC0007008880013E1A80042FF07006CFF0700AF
:102BD000E0FE20001010A00010002000507F8800B0
:102BE0000840780056010700C0002000820007005E
:102BF000C0002000140007004F0478000000060009
:102C00000004E00009003A000000EB00D00C88004E
:102C1000000D8800F10C8800D0002000E00C880036
:102C2000A03FB000D00C8800060037000000EB0089
:102C3000800C8800B00C8800A10C8800D000200017
:102C4000900C880000000600881F780000047800BF
:102C5000CF80DE00240B0200000000000800E0002E
:102C600004003D0002002000037824009E0C0200B6
:102C7000000000000200200003E023007A0B0200A5
:102C80000000000003000700100020004F0478003F
:102C900000000600889FBE008A9FBE008C1F78003F
:102CA0000005BE0095A0A900AAC0BF000044A10075
:102CB0000046B300AAE0B700E1FE2000F0E52F00D7
:102CC0009108600002002000031624000A00BE00E4
:102CD000580D0200000000000000E0000400340075
:102CE0000046EB000A0020000B16240010003700FD
:102CF0006011B8000A00BE005C0D02000000000078
:102D00001CC0B3000000E00009003A009021EF0071
:102D1000E1FE2000000420001100600011002000EE
:102D20003000320095A0A800110020002D003700CF
:102D300095A0A9003233230033F323000A00BE001C
:102D40007A0B020000000000127E2A0083E32300B9
:102D50007A0B02000000000048FD20001801BE00B0
:102D6000E20B020000000000660C02000000000000
:102D7000007F88000000EB00107F880059052000CC
:102D8000497F8800127E2A0083E323000A00BE00E8
:102D90007A0B0200000000001801BE00E20B0200E6
:102DA0000000000002002000030824009E0C020026
:102DB00000000000660C020000000000207F880078
:102DC00068005000307F88008900780010C0B30090
:102DD0008BFF0700E0FE20001080A00095A0A80057
:102DE0008C80FB00010078004F0678004F05BE0084
:102DF0004F04BE0000000600889FBE008A9FBE00F0
:102E000000047800CF80DE00240B020000000000E8
:102E10000800E00004003D000200200003782400C8
:102E20009E0C0200000000000200200003E02300CE
:102E30007A0B0200000000000004BE002D00070015
:102E400016FF07000005BE0040FF0700A07F8800B6
:102E5000907F88000801BE000A00BE009C0C0200A2
:102E60000000000001F0A100A2702D0033E2230059
:102E70005C0D0200000000000000E00002003D00C8
:102E800010C0B30002003700000000000040EB005B
:102E90000080FB004F05BE004F04BE00000006008E
:102EA000889FBE000004BE0012000700FBFE070062
:102EB0000801BE009C0C02000000000001F0A1000F
:102EC000A2702D0033E223005C0D02000000000020
:102ED0000000E00002003D0010C0B3000200370017
:102EE000000000000040EB000080FB004F04BE002B
:102EF00000000600889FBE008A9FBE008C1F7800DD
:102F00000004BE0095A0A900E0FE20001060A10012
:102F10006011B8000800BE005C0D02000000000057
:102F20000000E00003003A009A21EF0010002000AA
:102F30003F00370002002000030A24000800BE0002
:102F4000580D0200000000000000E0000400340002
:102F50000046EB0008002000090A240001003700A9
:102F60001CC0B3000805BE00A299290093F52300F8
:102F70000800BE007A0B0200000000000004BE0042
:102F8000A2702D0033082400580D0200000000003C
:102F90000000E00002003400A8702D003908240071
:102FA000D27D2A0083EB23000800BE007A0B0200CA
:102FB00000000000A27E8000B37E8000E20B0200D1
:102FC00000000000660C020000000000D07E8800B7
:102FD0000004EB00E87E8800F2282C0053D7230081
:102FE0000A00BE00E20B0200000000000200200008
:102FF00003F023009E0C020000000000660C02009B
:10300000000000008000780008407800FCFE070007
:10301000E0FE20001060A00095A0A8000071220032
:1030200001002000E6110200000000000C80FB00FF
:103030004F0678004F05BE004F04BE00000006009A
:10304000809FBE00829FBE00841F78000200FA00AD
:1030500042C0BF004500DE0067006000F0BF9F0077
:1030600092028000FF3FFC0042C0BF007F40600032
:1030700001CCB3000140700042E0B700920288002A
:103080000002EB00B07F80000408780034C0BF006D
:103090008081FB000000200034E0B70085A0A9007B
:1030A00000188000C07E880012188000F27E880020
:1030B000E1FE2000000A200011006000010820004D
:1030C000810F50000B003A0040FE2000900F51008D
:1030D00001003600840C880060FE2000900F510033
:1030E000040031009001E20002003A00704020002C
:1030F000800C88000300780034E0B7003100200025
:10310000B07F80000108780092028000FF3FFC0041
:10311000FFB89700C508DD0042C0BF007F406000D7
:103120000140700042E0B700920288000080FA007F
:103130004F0278004F01BE004F00BE000040060065
:103140000000000000000000E1FE20000010200050
:10315000110060000700320070402000800C8800E1
:103160001170A000801A260001002000E611020064
:1031700000000000E4C2A900E4A2A8000F0037008C
:10318000E1FE2000000220001100600009003A006A
:103190001170A100800C8800E4C2A80080B5210055
:1031A00001002000E611020000000000E4A2A900D6
:1031B00002003700E4A2A900E4C2A8000000060053
:1031C000E4C2BF004500DE006100600000000600B0
:1031D000400107000000E000010032001000200064
:1031E00000000600881F78008A9FBE000004780057
:1031F0000205BE00590107000A04440008007800D7
:103200004F05BE004F047800000006000200FA00DF
:1032100012002000030020000F80E9004F0107008A
:10322000EFF897000180FB000080FA000000060024
:1032300014C0B30000852000044878006011B80075
:1032400092428800A34288008040EB00A0852000C5
:1032500001487800B085200001487800C085200032
:1032600001487800D085200004487800B2428800E8
:10327000C3428800000006000000EB000045880003
:1032800010458800000006001800FA004261200086
:103290008000EB00008A2000600E020000000000A9
:1032A000E3FF0700F4FF07000001EB0003EF20003D
:1032B0008200410062C079000080FB0078825700E4
:1032C00000B278000201E800EC0F5100F8FF3A006C
:1032D000D62202000000000078805700EE22020093
:1032E00000000000D21E02000000000011C0B30068
:1032F000508A200001487800100020000080FA0069
:103300000000060011C0B30001487800000006006C
:103310000200FA00889FBE000040EB00A0FF9F0063
:1033200066825700239821000001EB00006C2C00FE
:10333000D10220005211020000000000D61102004C
:10334000000000000907210008C2B3000300370095
:103350002FF897000004E00004003A00341F020038
:1033600000000000994F1400F9FF3A0010C0B300AC
:1033700056140200000000009EC0A9008EC0A900E3
:10338000CFC0BF0081CFB300014060006040B300F8
:10339000CFE0B7009EC0A800100020004F04BE0080
:1033A0000080FA0000000600889FBE008A9FBE00D1
:1033B000000478000205BE008144780093000700F5
:1033C0000004E000FDFF32000800E0000B003A00BE
:1033D000218A2000808A200011004000C17F8000E7
:1033E000910078000A0178006E0E020000000000D3
:1033F000C07F80001008450007003700218A2000A8
:10340000808A2000110040000A01780088007800BE
:103410006E0E020000000000218A20009108450085
:10342000018A2000910845000904E00001003200F3
:10343000210007004F05BE004F04BE00000006003B
:1034400000000600889FBE0080007800820478009B
:10345000888A2000208A2000100044006E0E02009E
:1034600000000000008A2000108844000800780056
:10347000818E20000000E800808F5000FDFF3A00A0
:10348000008A2000218A200091884400108844008E
:1034900003C4B300828A200011C0B3000140780049
:1034A00048260200000000005086880072FF0700D6
:1034B0004F04BE0000000600889FBE008A9FBE0029
:1034C000008A20001000E0002B003200000D2100D7
:1034D0001004E000040032008038210001002000C8
:1034E000E611020000000000808A2000818E20008A
:1034F0000000E800810F5000FDFF3A000045800009
:103500000000E0001B003200898A20000A8A2000A7
:103510005B8A2000508680000000E000030032003B
:10352000620007000004E000FDFF3200004580005B
:1035300001042000810F500001003E00804078000F
:103540000184FB00080D500003C4B300090178009A
:1035500011C0B300014078004826020000000000BE
:103560005086880088844400804DEB001A00E000FB
:10357000E8FF3A0040FF07004F05BE004F04BE00C1
:1035800000000600418680000100E00004003A00CF
:10359000518680000100E00005003A000700370076
:1035A000114090000004E000F9FF3D00FCFF3700EF
:1035B000114090000004E000FDFF3500006A280083
:1035C00011002000E6110200000000000000EB00E6
:1035D000A02488006024880001072100804878002A
:1035E000000006000001EB000107210000C2B3004B
:1035F000914F100001003A001200200002007800F4
:10360000000006000000060000000600508A2000AE
:103610001080FB00000006001000200000000600E3
:103620000200FA0042C0BF004500DE0067006000F3
:10363000F0BF9F0092028000FF3FFC0042C0BF002D
:103640007F40600001CCB3000140700042E0B70051
:1036500092028800B07F80000008EB00A085200067
:10366000904178000304E0000100320013C0B30071
:1036700031002000B07F80000108780092028000B5
:10368000FF3FFC00FFB89700C508DD0042C0BF0047
:103690007F4060000140700042E0B7009202880065
:1036A0000380FB000080FA000000060050868000C6
:1036B0000000E00004003200104090008000EB00A9
:1036C0000004E00001003500110020000180FB0033
:1036D000000006000200FA0042C0BF004500DE0004
:1036E00067006000F0BF9F0092028000FF3FFC0077
:1036F00042C0BF007F40600001CCB30001407000B9
:1037000042E0B70092028800B07F80000008EB0022
:10371000A08520001080FB0032002000B17F8000D7
:103720008208780093028000FF3FFC007FB9970079
:103730004511DD002104200091407800FFC06000A9
:1037400082C070008000FD0042E0B7008000FD00F4
:10375000930288000080FA0000000600EE87470010
:10376000889FBE008A9FBE008C9FBE008E1F78007F
:1037700000077800F2B79F0083BF9F006000B80089
:10378000D0B79F00E1B79F00D2FF070080447800C8
:103790000004E00002003A00004478009B0037007B
:1037A00042C0BF004500DE0067006000B0B79F0068
:1037B00092028000FF3FFC0042C0BF007F406000DB
:1037C00001CCB3000140700042E0B70092028800D3
:1037D000B07F80000008EB000986FB000D00200090
:1037E0005FB19700EFB197000C0541008D8549004E
:1037F0007FB297008FBA9700840F5500858F5D00C8
:103800002C0039000E00E0000D003A0002045200C6
:10381000C07F800010007800B18520009180FB00FF
:10382000E285200082804000080178006E0E0200D0
:1038300000000000C07F8000100844000A0037002C
:10384000FFB297005FB3970006815200B085200059
:103850009080FB00E0852000808040000E00780012
:103860006E0E020000000000EFEB97002FE89700BB
:1038700000C15300B085200010484100A185200000
:103880001140780082485000628520007FB2970086
:103890008FBA97005FB39700EFB39700060052000E
:1038A00087805A00120940005291480018C0B300A6
:1038B000240037000E00E0000D003A000984FB00F0
:1038C000C07F800010007800B18520009180FB004F
:1038D000E285200082804000080178006E0E020020
:1038E00000000000C07F8000100844000A0037007C
:1038F0000984FB00B08520009080FB00E08520005B
:1039000080804000080178000E0078006E0E0200F2
:103910000000000008074700B085200010C84400E0
:10392000A185200011407800894850006085200062
:103930001008460050904E00DAB79F00EBB79F008A
:103940000044EB0020852000648520001001BE00AB
:10395000B40F5100A48F590011003A006011B80053
:103960000288BE008040EB00A0852000014878005E
:10397000B085200001487800028ABE0010C0B30064
:10398000D28520000049780003C4B300E2852000FE
:103990004826020000000000408688000F00370023
:1039A000B085200003C4B30090CF11000B003A0093
:1039B0008040EB0001487800A08520000148780095
:1039C00010C0B300D285200000497800E2852000B5
:1039D00048260200000000004086880031002000D8
:1039E000B07F80000108780092028000FF3FFC0059
:1039F000BFB09700C508DD0042C0BF007F40600037
:103A00000140700042E0B7009202880042C0BF004F
:103A10000080FB004500DE00C0B79F0092028000DE
:103A2000FF3FFC0042C0BF007F40600001CCB300FC
:103A30000140700042E0B70092028800B07F800031
:103A40000008EB00C08520001004E00004003200F4
:103A5000D08520001004E00001003200350007008E
:103A600031002000B07F80000108780092028000C1
:103A7000FF3FFC00CFB09700C508DD0042C0BF008B
:103A80007F4060000140700042E0B7009202880071
:103A90000804E0003CFF32004F0778004F06BE00EC
:103AA0004F05BE004F04BE00EF00B100000006004D
:103AB0000200FA0042C0BF004500DE00670060005F
:103AC000F0BF9F0092028000FF3FFC0042C0BF0099
:103AD0007F40600001CCB3000140700042E0B700BD
:103AE000920288000000EB00B17F8000800878001F
:103AF00032002000B17F80008208780093028000AD
:103B0000FF3FFC007FB997004511DD002104200034
:103B100091407800FFC0600082C070008000FD000E
:103B200042E0B7008000FD00930288000080FA00A8
:103B300000000600008520001004E0001E00320096
:103B4000000420000100200090428800A14288006B
:103B5000D0892000D18520000000E900810F5000AD
:103B6000FDFF3A000042EB00B085200004487800D9
:103B700092428000A342800000042000800F510088
:103B8000E08F59000600360000C4B300A185200074
:103B90008048780000852000044878001D00370028
:103BA000A08520000248780011C0B30000852000E5
:103BB0000148780017003700B08520000048EB006E
:103BC000B4428000C542800092428000A34280003F
:103BD0000400BE000004B0000180B000820F50005D
:103BE000838F580006003900A0852000044851004A
:103BF00011C0B3000085200001487800050037009F
:103C000000C4B300A1852000804878000085200012
:103C10000048EB0000000600500A21001080FB0065
:103C20000020A100F80F500009003A00608A20002F
:103C30000048EB00408A20001004E0000E003A002B
:103C400011C0B300508A2000014878000A003700F4
:103C5000F00F500008003A00D08520001004E0006A
:103C600002003200B3FF07000300370011C0B300A9
:103C7000C08520000148780000000600809FBE003B
:103C8000821F78000200FA0042C0BF004500DE003B
:103C900067006000F0BF9F0092028000FF3FFC00C1
:103CA00042C0BF007F40600001CCB3000140700003
:103CB00042E0B70092028800B07F80000008EB006D
:103CC00041032000914078000000200034E0B7005C
:103CD0008460A9000100780034E0B70031002000C2
:103CE000B07F80000108780092028000FF3FFC0056
:103CF000FFB89700C508DD0042C0BF007F406000EC
:103D00000140700042E0B700920288000080FA0093
:103D10004F0178004F00BE00004006000000060082
:103D20000000060000000600000006009C260200BD
:103D3000000000000000060000000600D1C1B30032
:103D400010C0B300E02502000000000003C4B3006F
:103D5000E28520008040EB0010C0B300482602003E
:103D600000000000408688000000EB0050868800BC
:103D7000000006009444A80080702000A0868800FF
:103D80000000EB00817020000000E800810F50006F
:103D9000FDFF3A000000EB00A08688009444A900D3
:103DA00000000600F00F20007024880050248800D6
:103DB000F009200080248800602488008804A8007E
:103DC000000021004800DE00C02488009424A800E0
:103DD0009424A9000000EB00B02488008000780043
:103DE000040021006011B8004208DD00040040001A
:103DF0000288BE008100E800E88F5000FAFF3A0018
:103E0000D0002000502588008AC4BF000038A300DD
:103E10000600320031C0B300A0482000C1030700F3
:103E20008AC4BF000038A300FAFF3A008040EB00CC
:103E300040072100014878008007210021409800B8
:103E40000000EB00E083880094A4A900800021001A
:103E50000084880010072100014878000007210035
:103E60000148780000000600889FBE00000721007E
:103E70001004E00011003A000000EB00A0248800CC
:103E80006024880094C4BF000008A30004003A0026
:103E90009404A80094C4BF000008A300FCFF3200F3
:103EA00011C0B30000072100014878002000200065
:103EB00030258800000120004025880001072100EE
:103EC00010C0B300914F100007003A00F00F20001F
:103ED000502488008C24EF008C04A8008C84A80057
:103EE00020C0B3008048780080C4BF000048A30011
:103EF0000400320082C4BF000048A3000100320069
:103F00006E00070088C4BF000018A3004E003A00EE
:103F10008AC4BF000008A300110032008CC4BF0097
:103F20000008A3000E0032009EFF070041C0B3004E
:103F3000000721000148780000022100108088005D
:103F400081C0B3000000210001487800100021006A
:103F50009040780063C86000C1C8B30010C870000A
:103F60008AC4BF000048A300040032008CC4BF0014
:103F70000048A30001003200490007008AC4BF00C6
:103F80000028A300080032008CC4BF000028A30052
:103F900005003200921E02000000000021C0B300A4
:103FA000A04820005F0307008A44E20006003D00AD
:103FB000C14820009140780000C8B30080C0600074
:103FC00001003200220007008AC4BF000018A300CD
:103FD000070032008CC4BF000018A30004003200A8
:103FE000941E020000000000F00F200070248800E2
:103FF0000007210031C0B30090CF1000120036003E
:104000008CC4BF000038A3000F00320048C0B300CA
:10401000590A21008AC4BF000038A3000A003200F8
:1040200090248000804C780031C0B300A04820006C
:104030003C030700280007000C1E020000000000DF
:104040000844E900F3FF3A004F04BE0000000600F8
:10405000AAC4BF000018A3000D003200C284800073
:104060009240900000C8B30080CF500007003A0093
:10407000008480009040900040C8B30080CF500082
:1040800002003A006840400010419800AA24A900AC
:1040900071C0B300A0482000220307000000060002
:1040A0008284A80041C0B300A04820001D0307007F
:1040B0008E1E02000000000000000600901E02009C
:1040C000000000008284A90041C0B3000048200025
:1040D0001403070000000600500A21009080FB0036
:1040E000010078000020A1000000E00010003A006C
:1040F000C10FB2000000210080804000C184880010
:10410000D1848800A00921001024A2001140900051
:10411000C043B20041C3B300814F500002003A00D7
:1041200007000700050037001900070003003700EB
:10413000E80F500001003A001D00070000000600D3
:1041400001848000114090000004E00002003D0066
:104150000040EB00904098008040EB00000A2100F6
:1041600001487800100A2100014878000000EB00A7
:10417000B083880040072100014878007C000700D8
:10418000961E0200000000008801070000000600E3
:10419000100A210021C0B30090CF100002003A00A5
:1041A000210207000100370036000700000006006A
:1041B000889FBE0001082100110078001040900087
:1041C0004600DE00610460001124A2000107210006
:1041D00080C0B300914F10000C003A000002210093
:1041E000204090000080FB00B02488009604E2008C
:1041F0000300320000C1B30080487800030037009C
:1042000041C0B3000007210001487800100A2100D6
:1042100011C0B30090CF100017003A000908210028
:10422000190078008102210011009800BF010700E9
:10423000000A210021C0B30090CF100004003A0012
:104240009900780040C8B300904098000B003700F8
:104250000804E00004003A0081CCB3000084800030
:10426000114098000500370081C8B3000084800029
:104270001140980001003700020007004F04BE0003
:1042800000000600100A210021C0B30090CF1000EA
:104290001A003A0094C4BF000058A300170032006F
:1042A000C084800083C0B30090CF110013003A0097
:1042B00010409000C043B20041C3B300814F500092
:1042C0000E003A00D1848000114090000004E0000C
:1042D0000A00350000022100900098000000EB0069
:1042E0000202210081022100617178000000E800D3
:1042F000E80F500013003200FBFF37000041EB00D5
:10430000100A21000248780081C0B300D0848000E8
:104310000148780001022100D0848000110098003B
:10432000C1C8B300D084800011409800010821006A
:104330001100780012409800110078000020A200BF
:1043400012409800D08380000078A300070032005C
:10435000F08380000000E000010032000000010056
:10436000D08380000070A100D08388000000060088
:104370000102210002C6B3001140610046003A006C
:10438000114090000080FB0001002000EB0F500066
:10439000E08F580040003E00006001002000370020
:1043A000210037003C0037001F0037003A0037007B
:1043B000060037000B003700350037000D003700CE
:1043C0000A0037001A003700280037004007210094
:1043D0001070A00081C0B3000007210001487800E0
:1043E0002D003700830007002B003700C5010700B0
:1043F0002900370010072100908388004207210020
:10440000920178000300A00011C0B30060072100F2
:10441000014878000370A000030978001E003700EF
:10442000AA0007001C0037001C0007001A00370014
:1044300000022100404090000080FB006109210043
:10444000010040009083880042072100920178001B
:104450000300A00011C0B3006007210001487800EC
:104460000370A000030978000B003700400721000B
:104470001070A00002022100424090000080FB006A
:10448000610921002241900002F07800020037000B
:104490009C1E020000000000000006000102210036
:1044A00021419000E14F51000D003A009141780008
:1044B0007FC061000A003A00400721001070A00090
:1044C00011409000E34F500003003A00400A2100E1
:1044D0000248780002003700400A21000048EB0043
:1044E00001022100214090000004E0002E003A006B
:1044F000114178007F406100E24F50002A003A00ED
:10450000414090006F4060002700320040072100CA
:104510001070A0000002EB0005002100810178006E
:1045200043409000C34090008180FB006F0060001A
:1045300000004000C708DE0001004000000040000D
:10454000040040004200DD000501400013409000DF
:10455000E34F500003003A0040C8B30010419800F8
:104560000E003700434090006F00600000004000E4
:10457000A14A2000010040001010A100434090001B
:104580000004E00003003D0000C4B30010419800A7
:104590000200370080CCB300104198000402E8000C
:1045A000E20F5200DEFF3A0000000600A30A2100DD
:1045B00031FB8500114078000081FB000004E00021
:1045C000050032000000EB00B15978000000E8005F
:1045D000800F5100FCFF3E0000000600C10A2100D0
:1045E000420C2100B0187800810F5100FDFF3A0005
:1045F000000006000202210000C8B300924F100024
:1046000031003A0001CCB300400721000148780096
:1046100032409000E24F500009003200E34F50005A
:1046200011003200E14F500025003A0000EA2B0053
:104630009083880020012000B0838800220037008A
:1046400000022100204090000080FB00000040009C
:10465000E1F52B00E0807800918388001100900044
:10466000B08388001800370000022100204090002D
:10467000E34F500008003A0011CCB300400721007E
:1046800001487800A00A2100908388001080FB0078
:10469000B08388000C003700000221002040900009
:1046A0000080FB000000400001F62B0060807800D5
:1046B000908388001080FB00B083880002003700E0
:1046C000400721000048EB000000060082022100A4
:1046D0008040EB00014978009002210001487800F9
:1046E00000022100104078007F4060000080FB0045
:1046F000E10F50000C003200E20F50000D003200BC
:104700000000E0001E003A00400721001070A000E9
:10471000400A210011C0B30090CF100018003A00E9
:104720001214A00016003700400721001070A000EE
:1047300013003700400721001070A0000102210083
:1047400041409000C14090008180FB006F006000FC
:10475000C708DE0000004000010040004300DD000B
:104760000100210001004000104090000028A3003B
:104770000300320011C0B30080022100014878001C
:1047800041072100000820001100600006003200EF
:1047900080022100908388001100A00021C0B30096
:1047A00060072100014878000000060094A4A900D9
:1047B00001082000400721001081600022003A001B
:1047C000D0838000010060001200320021C0B300DD
:1047D000100A21000148780001082100110078002A
:1047E000024878001100780082CCB3001240980093
:1047F00081C0B300D084800001487800810221008C
:10480000D084800011009800D0848000124098006D
:104810004500370081C0B300D08480000148780093
:1048200001022100D084800011009800C1C8B300AB
:10483000D084800011409800E8C0500000848000BF
:104840001140980038003700D08380000078A30022
:1048500035003A00000221001004E00021003D0074
:104860003081800061072100910F5000020031006B
:1048700030818000800878002C00070011C0B30050
:10488000100A21000148780083C0B300D084800062
:104890000348780002022100D084800012009800B2
:1048A00001C8B300D084800011409800C08480000B
:1048B00003487800C084800012009800C084800003
:1048C0001140980002082100920078008002210027
:1048D000900098009200780080CCB300904098003F
:1048E0001100370021C0B300100A210001487800F0
:1048F00001082100110078000048EB001100780049
:1049000082CCB3001240980081C0B300D0848000F4
:104910000148780081022100D084800011009800B5
:10492000D08480001240980000000600B083800010
:1049300084002000E70F50000D003E0000027800C8
:10494000010A2100114078000004E00003003A0051
:1049500010C0B3008048780005003700E14F5000D8
:1049600003003A0021C0B300000A2100014878008A
:10497000030821001301780012409000C820DE00D7
:10498000014070001041980013007800044878003E
:1049900084017800600721001008120080022100C5
:1049A0001085880040072100100078006100600039
:1049B0001A003200160037000001EB002407210026
:1049C00010858000940078003158780010858800A8
:1049D000010A78000201E800828F510011003200C4
:1049E000F7FF37000001EB0024072100108580004D
:1049F000940078003158780010858800010A78000A
:104A00000201E800828F510006003200F7FF3700F4
:104A10000400E000F3FF3A00020037000400E00069
:104A2000E5FF3A0000000600C08480009041780055
:104A30008380FB00E0838000808F500002003600FE
:104A4000804178000200370001005000E0838800B8
:104A50000304E0000B0032000041EB008000EB009B
:104A600084072100850221001400780061D87A00B3
:104A7000000A78000241E8008100E80082CF51007E
:104A8000F9FF3A00E08380000000E00012003200ED
:104A900081C0B300D08480000148780081022100E9
:104AA000D084800011009800C084800010409000E5
:104AB0000068A30004003A0081CCB300D0848000D9
:104AC000114098000E00370081C8B300D0848000E8
:104AD000114098000A00370001022100D0848000B4
:104AE00011009800F08380000000E0000100320017
:104AF00000000100D08380000070A100D0838800F6
:104B000000000600400721001070A000600921008D
:104B10000048EB0001022100100721002141900014
:104B200002487800214090000004E00004003A00B0
:104B300001C1B300000721000148780005003700DB
:104B400001C2B30000072100014878009E1E020048
:104B500000000000000006008081FB00038241008D
:104B60000180FB00000042004300DD000200210044
:104B700002014000124090000074A1001041980012
:104B80000104E00003003A00C0092100023278006D
:104B90000300370083804100000821008230780044
:104BA000124090000064A10010419800E400410010
:104BB000114090000064A0009040980000000600A2
:104BC000889FBE00804478000184FB000080FB00C9
:104BD00000004000A14A200008B078000838A30077
:104BE000030032008040EB0009407800DAFF070044
:104BF0000828A3000300320011C0B3000940780068
:104C0000D5FF07004F04BE000000060001417800F8
:104C10000004E0000D003A0081C0B300D0848000A1
:104C20000148780001022100D08480001100980022
:104C3000C1C8B300D084800011409800E8C0500083
:104C40000084800011409800100037008080FB0035
:104C5000818040000280FB0080804000C308DD00AE
:104C600002002100028140001240900043C8B300BE
:104C700003407000104198004000210080804000F7
:104C80001140900003407000904098000000060022
:104C900080427800014378000104E0000500320002
:104CA0000080FB00000040000108210060827800C5
:104CB000040037000080FB0000004000C109210013
:104CC0006082780012029800034A78001440900035
:104CD0000044B200104298001440900081C8B30014
:104CE00001407000104298000604E0000600320007
:104CF0000580FB0000004000010821000100400089
:104D00001024A200050037000580FB0000004000D1
:104D1000C1092100010040001024A2000400780015
:104D2000000006008180FB00120020000111DD0060
:104D300002487800000006000102210011417800BD
:104D40007F406100E14F500064003A004140900014
:104D50000004E00061003A0011409000E64F50006E
:104D600025003A00B14090007C40400080CF5000C8
:104D7000120032000040E80080CF50001B003200DB
:104D800000C0E90080CF50001B003A00100721004E
:104D900011C0B30090CF100017003A0040EC2B0078
:104DA0009083880090002000B083880001CCB3007D
:104DB00040072100014878000F003700100721004C
:104DC00012C0B300904F11000B003A0000F42B000A
:104DD00090838800D0012000B083880001CCB3000C
:104DE00040072100014878000300370001C8B300E4
:104DF00040072100014878000202210000C6B300EC
:104E00009240600000C2B30080CF500033003A00EF
:104E100012409000E34F50002100320005003E0098
:104E2000E14F50000A003200E24F50002B003A00E0
:104E30000B003700EA4F500011003200EB4F5000DA
:104E40001F003200E94F500024003A0002003700F2
:104E50002300070021003700220007001F00370051
:104E6000D00C21009083880010002000B0838800BF
:104E700011CCB3004007210001487800170037002B
:104E800001C8B30040072100014878000102210059
:104E9000D00C2100B1409000014878000F0037008D
:104EA000E00C21009083880010002000B08388006F
:104EB00011C8B300400721000148780007003700FF
:104EC00001C8B30040072100014878000102210019
:104ED000E00C2100A140900001487800000006008D
:104EE0000000060000000600000006006022EF003F
:104EF0008820A9009820A9000004E00003003200E7
:104F0000B01320001013880002003700E0132000C7
:104F1000101388000000280000138800000006001D
:104F20000080FB004013880060C2BF000008A3009F
:104F3000FDFF3200401380000080FB0000000600EF
:104F4000D8A2A900DCA2A800F122A900F522A8009D
:104F5000D8E2A900DCE2A800E802A900EC02A8005F
:104F600000000600EA874700889FBE008A9FBE00B7
:104F70008C9FBE008E1F7800D0B79F00E1B79F00C6
:104F800082BF9F000404BE000180EA004F00DE00E3
:104F900070405000E0EF9F000041EB0011C0B300F3
:104FA000C2000700F0EF9F000004E000290032007B
:104FB00030C0B300DAFF07006FE89700F04F400001
:104FC00002003A004FE89700D5FF07003FE897003E
:104FD000D3FF07002FE89700D1FF070061045400BA
:104FE000E0845C00E10F4400E08F4C0015003200CB
:104FF0000805BE000087EB000ECEB9000040EB00B4
:10500000C7FF07008FB897008058780081BF9F00C6
:1050100061055500E0855D000E40B8000EC1B90085
:10502000010141008C0041000000440081804C00DF
:1050300061005000E0805800800F5500818F5D00B6
:10504000EEFF3A000041EB00824078006FE89700E5
:1050500096000700FFE897000180FB004F077800EB
:105060004F06BE004F05BE004F04BE00AF00B100AA
:1050700000000600F6874700889FBE008A9FBE009A
:105080008C9FBE008E1F7800E2B79F00F4B79F0090
:1050900085BF9F00E00F5000E08F580007003D00E3
:1050A00002CFB300A2E79F0003102000B3B79F0018
:1050B0000041EB00C2E79F000600370013CFB300AA
:1050C000A3E79F0002042000B2B79F0013C0B30003
:1050D000C3E79F00F0AF9F0081B79F007FB09700AC
:1050E0008FB89700E00F5000E08F58006400320046
:1050F00011C0B300B1E79F00BFB197006119B800BC
:10510000C2B79F00D3B79F004FB09700DFB09700A2
:105110007FB197008FB99700820F5000838F58009E
:1051200002003E003FB79700010037007FB79700AD
:105130007FAC97008FB497000E064400E0864C00C9
:105140004FB19700DFB197000C00BE00040B0200C6
:10515000000000000005BE004FB19700DFB19700CE
:105160000800BE00040B020000000000800F550084
:10517000818F5D00060032004FB19700DFB19700CC
:105180000C00BE00600D0200000000000007570088
:10519000BFE197000304E00006003A00823E2000D1
:1051A000030020002FE097008B0007000004E000C0
:1051B0003700320012C0B300824078002FE0970021
:1051C0003A0007000004E0003100320020C0B300C4
:1051D00053FF07004FE097000004E00002003A0090
:1051E0000FE097004EFF07007FD897004CFF0700A5
:1051F0006FD897004AFF07000E00E0000800320059
:105200000004EB00EFB0970031407800E1B79F0059
:1052100043FF07000804E800880F5700F9FF3A0031
:105220000041EB00824078002FE097001F0007004C
:105230006170B8007FB197008FB9970000015100ED
:1052400081815900F2B79F0083BF9F007FA997001B
:105250008FB197000001410081814900F2AF9F00AA
:1052600083B79F008041EB00B3E79F007FB09700BA
:105270008FB89700E00F5000E08F5800A2FF3A006F
:10528000823E2000030020002FE09700520007001C
:105290000080FB004F0778004F06BE004F05BE00A0
:1052A0004F04BE006F01B10000000600889FBE00E1
:1052B0008A1F780082447800F04F400003003A00D3
:1052C0001AC0B3000A447800060037001AC0B300C1
:1052D0000044EB00EF4F4000020032000045EB00BD
:1052E0000A447800DCA2A800DCE2A800F522A800AD
:1052F000EC02A8000A04E0001E0032000104E000F5
:105300001C0032000804E0000700320010C0B300A7
:10531000F6FE0700F522A9000904E000150032009E
:10532000EC02A800060037000040EB00EFFE07008B
:10533000DCA2A9000904E0000E003200DCE2A800B3
:1053400060C0B300F6FE07000804E000050032006C
:10535000F522A8000000000000000000F522A900CE
:1053600004003700DCA2A8000000000000000000DC
:10537000DCA2A9000A80FB004F0578004F04BE00A4
:1053800000000600889FBE00004478008104780079
:105390000041EB0011C0B300C4FF07000004E000AF
:1053A0000A00320050C0B300DDFE07000040EB00F1
:1053B000DBFE0700804C78000041EB008240780063
:1053C00008407800B9FF070010C0B3000080FB0060
:1053D0004F04BE0000000600E6874700889FBE001D
:1053E0008A9FBE008C9FBE008E1F780080F79F00B2
:1053F0000204BE000205BE0014C0B3000087EB002B
:105400000ECEB90007003700F28057000FF097006A
:10541000DCFF070000427800FFB097006180600069
:105420000F00320061055500E0855D000E40B800B8
:105430000EC1B900010141008C004100080040008C
:105440008980480061005000E08058008A0F5000B9
:105450008B8F5800020032000404E000EAFF3A009B
:10546000E00F5500E08F5D0001003A000042EB00C4
:105470000480FB004F0778004F06BE004F05BE00BA
:105480004F04BE006F00B100000006002174200030
:105490006204200073052000824878008348780069
:1054A00042C7A90000000600217420006204200009
:1054B00073052000824878008348780042C7A8001E
:1054C00000000600F1FF0700CAC6BF0001CCB30010
:1054D000014060003040B300CAE6B700A4C6BF0078
:1054E000014060001041B300A4E6B700D9C6BF0078
:1054F000014060007040B300D9E6B700D7C6BF00D6
:10550000014060000034A000D7E6B700A8C6BF0085
:10551000014060006041B300A8E6B700A9C6BF0023
:10552000014060007041B300A9E6B700CBC6BF00E0
:1055300001406000A040B300CBE6B700C2C6BF0088
:1055400001406000B040B300C2E6B700ACC6BF0087
:1055500001406000C040B300ACE6B700D2C6BF0057
:10556000014060002041B300D2E6B700DCC6BF00B6
:10557000014060003041B300DCE6B700CAFF07001D
:105580000000060000002400307788004077880083
:105590000030240010778800004024002077880025
:1055A00000482400A0758800004C2400B0758800D5
:1055B0000050240000778800000006000200FA0076
:1055C000881F78000000EB00E0BF9F00A0758000FE
:1055D0000204200003002000F21802000000000076
:1055E00008042000EFB99700A475800064C079001A
:1055F00082EB2000004978000301E800E2BF9F0031
:105600000080FB00010020004002B1000180B100D9
:1056100065092000850F5000E08F580024013E00EE
:10562000006001009C003700210137002001370095
:105630001F0137001E0137001D0137009C00370095
:105640001B0137001A013700190137001801370014
:105650001701370016013700150137001401370014
:105660001301370012013700110137001001370014
:105670000F0137000E0137000D0137000C01370014
:105680000B0137000A013700090137000801370014
:10569000070137000601370079003700060137009F
:1056A0000301370002013700010137000001370014
:1056B000FF003700FE003700FD003700FC00370018
:1056C000FB003700FA003700F9003700F800370018
:1056D000F7003700F6003700F5003700F400370018
:1056E000F3003700F2003700F1003700F000370018
:1056F000EF003700EE003700ED003700EE00370016
:10570000EB003700EA003700E9003700E800370017
:10571000E7003700E6003700E5003700E400370017
:10572000E3003700E2003700E1003700E000370017
:10573000DF003700DE003700DD003700DC00370017
:10574000DB003700DA003700D9003700D800370017
:10575000D7003700D6003700D5003700D400370017
:10576000D3003700D2003700D1003700D000370017
:10577000CF003700CE003700CD003700CC00370017
:10578000CB003700CA003700C9003700C800370017
:10579000C7003700C6003700C5003700C400370017
:1057A000C3003700C2003700C1003700C000370017
:1057B000BF003700BE003700BD003700BC00370017
:1057C000BB003700BA003700B9003700B800370017
:1057D000B7003700B6003700B5003700B400370017
:1057E000B3003700B2003700B1003700B000370017
:1057F000AF003700AE003700AD003700AC00370017
:10580000AB003700AA003700A9003700A800370016
:10581000A70037002C003700370037004200370060
:105820004300370044003700460037004D00370082
:1058300058003700590037005B0037005C00370024
:105840005D0037005E00370093003700900037009E
:105850005D0037009300370097003700960037004F
:1058600095003700940037008E0037009200370013
:105870008F003700560037007B003700820037006A
:1058800062407A000004E00001003A003B08070093
:10589000E8BF9F008800370062407A000004E00003
:1058A00001003A0058080700E8BF9F008200370057
:1058B00062407A000004E00001003A007508070029
:1058C000E8BF9F007C00370062407A000080FB0048
:1058D0008200420091409000C808DD0001004000B5
:1058E000FC160200000000006FB897000080E8007E
:1058F000E0BF9F007000370062407A000080FB002C
:105900008200420091409000C808DD000100400084
:105910002416020000000000EFB897008180E80024
:10592000E1BF9F00640037004105070062003700B7
:105930000C03070060003700648057007B050700F8
:105940005D00370002004200904090001040780057
:10595000E0050700EFBA97008582E800E5BF9F00E9
:1059600055003700E2407A00020042000000E800E3
:1059700058000700EFB89700A075800061407800DC
:105980000080FB00808040008100E800E1BF9F00B4
:1059900049003700180607004700370064805700A9
:1059A0001A06070044003700E602070042003700ED
:1059B0009D03070040003700520507003E003700F6
:1059C0003D0607003C003700E20507003A003700BB
:1059D00030EC200062487A008380E800E1BF9F003D
:1059E00080EB200061487A00E3804100E1BF9F0026
:1059F000A0EB200061487A00E4804100E1BF9F00F5
:105A0000C0EB200061487A00E5804100E1BF9F00C3
:105A1000D0EB200061487A00E6804100E1BF9F00A2
:105A2000E0EB200061487A00E7804100E1BF9F0081
:105A3000F0EB200061487A00E8804100E1BF9F0060
:105A400020EC200061487A00E9804100E1BF9F001E
:105A500040EC200061487A00EA814100E3BF9F00EA
:105A600064060700140037000200420090409000D6
:105A700010407800F10607006FB897000080E8003A
:105A8000E0BF9F000C003700000000000A00370054
:105A90000000FE000800370000042000E0BF9F0067
:105AA00005003700E5814100E3BF9F000200370099
:105AB00000042000E0BF9F00F0032000EFB8970033
:105AC000808F5000C7FE36004F0478000080FA0037
:105AD00000000600E8874700889FBE008A9FBE003E
:105AE0008C9FBE008E1F78000006780081467800EB
:105AF0008140E900C0C3B30080CF500008003E00E1
:105B00008045EB008BF79F00FBEF9F00EBEF9F00C2
:105B10000007EB00DEEF9F00CBEF9F007D02370018
:105B2000D076800000D0A000D07688007F023700B9
:105B30000B80FB000C0140009240780080EB2000BD
:105B40000148780010CBB30080CF500070023600BF
:105B50000180FB0001002000200BB1000180B1009A
:105B6000D3042000830F5000E08F580069023E00EC
:105B70000060010005023700750137007901370028
:105B80007D01370081013700830137008F01370025
:105B900098013700A2013700A7013700AC01370098
:105BA00056023700560237005702370056023700B8
:105BB0005502370054023700AD013700B1013700FC
:105BC000B7013700BB013700BE013700C301370002
:105BD000C7013700CB013700CE013700D3013700B2
:105BE000D5013700D7013700DA0137004502370009
:105BF00044023700DF013700F301370007023700A6
:105C00002A003700310037003500370042003700E6
:105C10004F00370065003700750037007700370008
:105C20007A00370013023700160237001B023700D4
:105C30001E02370026023700350237008F0037007A
:105C4000910037009D003700A9003700AE003700F3
:105C5000B3003700C7003700CC003700D200370050
:105C6000D9003700E2003700EA003700ED003700C6
:105C7000F1003700F6003700FD003700040137005F
:105C8000070137000A0137000C0137000E01370009
:105C9000130137001C0137001E01370020013700B7
:105CA0002201370024013700260137000B40E800AD
:105CB0000080FB0060407E000080FB008102070046
:105CC000AE0207008BC5E800120237008B45E800E2
:105CD000800020007B020700A80207000D023700A9
:105CE0008B45E8004100200010002000480207001A
:105CF000810020000000EB0045020700800020002A
:105D0000700207009D020700800020006D0207005E
:105D10009A020700FF0137008B45E8004100200090
:105D20000000EB003A020700810020000000EB00B9
:105D300037020700810020000000EB00340207005A
:105D4000810020000000EB0031020700F101370064
:105D5000410020000000EB002D0207000B40E8008E
:105D60000080FB0060407E000080FB00810020007E
:105D7000270207000BC0E8000080FB0060407E00A7
:105D80000080FB00810020002102070063C0450065
:105D90000080FB0060407E000080FB00E4C5450001
:105DA000810020001A020700DA01370041002000BC
:105DB0000000EB00160207000B40E8000080FB002B
:105DC00060407E000080FB00810020001002070080
:105DD0000BC0E8000080FB0060407E000080FB00FC
:105DE000E3C545008100200009020700C901370012
:105DF000780207008B45E800C60137003606070029
:105E00005E0207008B45E800C20137004FE89700AB
:105E10000004E000080032000E07E9000200320032
:105E2000EFED9700BB0137008BC5E8008041EB0028
:105E3000C3EF9F00B70137001240900000C055002B
:105E4000E0EF9F00630207000084FB00610207008F
:105E50004800DD000007440004003200EFED970029
:105E600010C0B300C0EF9F00AA0137008BC5E80047
:105E70008041EB00C3EF9F00A60137001240900065
:105E800080C54500A3013700C0ED20001080FB0055
:105E90002177800001004000F0F897001240900048
:105EA00080CF5000030036002240900080C545009E
:105EB00098013700E3C5450096013700C0ED20008A
:105EC0001080FB002177800001004000F0F897006F
:105ED0001240900080CF500003003A002240900012
:105EE00080C545008B013700E3C5450089013700B7
:105EF0000B40E8000080FB0060407E00AA01070024
:105F00008BC5E800830137000B40E8000080FB00F0
:105F100060407E00B20107008BC5E8007D013700BC
:105F20005FE897000004E0000A0032008FF197005C
:105F30008341E90083F79F0002003200FFED9700E4
:105F400074013700E3C545000040EB00D0EF9F002F
:105F5000700137001240900080C55500FBEF9F0094
:105F60002241900082F79F0013C0B300D3EF9F003F
:105F7000680137000B40E8000080FB0011ED2000B5
:105F8000E0487E008BC5E800620137000B40E80066
:105F90000080FB0060407E000080FB00E001070005
:105FA0008BC5E8005B0137000B40E8000080FB0078
:105FB00060407E000080FB00D9010700EF01070070
:105FC0008BC5E800530137000B40E8000080FB0060
:105FD00060407E000084FB00FE0107000080FB00A3
:105FE000880078008A0107008BC5E8004901370066
:105FF0000B40E8000080FB00000046009080FB00A2
:10600000104090000080FB0081010700E3C54500BF
:106010004001370080002000C10107008B45E800E7
:106020003C01370080002000BD010700D3010700BC
:106030008B45E80037013700E60107000080FB00D0
:1060400081002000720107008B45E8003101370014
:106050000B40E8000080FB0060407E000080FB00F9
:10606000810020006A0107008BC5E8002901370084
:106070000B40E8000080FB0060407E0001ED200046
:10608000804878007C0507008BC5E80021013700B7
:10609000CD42A900CD62A9008B45E8001D01370063
:1060A000CD42A800CD62A8008B45E8001901370059
:1060B000E4C2A9008B45E80016013700E4C2A8003D
:1060C0008B45E80013013700E0FE20001070A100AE
:1060D0009021EF00CCA2A9008B45E8000D0137000C
:1060E00070402000800C8800E0FE20001070A000AE
:1060F000801A260001002000E611020000000000C6
:106100008B45E80003013700E4A2A9008B45E800B5
:1061100000013700E4A2A8008B45E800FD0037002D
:10612000E4E2A8008B45E800FA003700E4E2A900A9
:106130008B45E800F7003700E462A8008B45E800D3
:10614000F4003700E462A9008B45E800F100370055
:106150008B45E8008040EB00014078009B0207007F
:10616000EC0037008B45E80011C0B3000040EB00A5
:1061700096020700E70037008B45E80011C0B30026
:106180000140780091020700E20037008B45E800EB
:106190005F020700DF0037008B45E8008D01070034
:1061A000004578008B0107008044780089010700D2
:1061B00000447800870107008A417800094178008F
:1061C0008840780026020700D20037008B41E800A3
:1061D0008381FB008301460013419000A34090009F
:1061E00033409000934178001D020700E5C545004B
:1061F000C80037008B41E8008381FB008301460023
:1062000013419000A34090003340900014C0B300AD
:1062100093417800C2010700E5C54500BD00370085
:106220000B40E8000080FB0060407E00A5010700F5
:106230008BC5E800B70037000B40E8000080FB008A
:1062400060407E00C90207008BC5E800B10037003E
:106250000B40E8000080FB000000460090409000EA
:106260001040780086020700E3C54500A90037000A
:106270008B45E80057010700340507003F01070080
:10628000A40037000B40E8000080FB0060407E0067
:106290002E050700390107008BC5E8009D00370077
:1062A0000040EB0029050700340107008B45E8009A
:1062B000980037008B45E8004601070023050700DA
:1062C000940037000B40E8000080FB0060407E0037
:1062D0001E0507008BC5E8008E003700F0C0B30034
:1062E000A3050700250107008B45E800890037005A
:1062F0000040EB009E050700200107008B45E800E9
:10630000840037008B45E80032010700970507003D
:10631000800037000B40E8000080FB0060407E00FA
:10632000920507008BC5E8007A0037007705070063
:106330008B45E800770037005C0507008B45E800D7
:1063400074003700FD0407000C0107008B45E800CE
:10635000700037000B40E8000080FB0060407E00CA
:1063600021ED200080487800E70407008BC5E80095
:10637000680037000B40E8000080FB0060407E00B2
:10638000F30307008BC5E800620037008B45E80087
:106390000B80FB0060407E000004E0005D003200E6
:1063A0000B44780080C445000844E8000880FB00E6
:1063B00060407E00E6030700894F5400FAFF3A0070
:1063C0008845780053003700410020000000EB00B2
:1063D0008F0007000B40E8000080FB0060407E005B
:1063E0000080FB004100200089000700F900070041
:1063F0000080FB0081002000850007008100200054
:106400000000EB0082000700410020002000200077
:106410007F0007008BC5E8003E00370041002000E8
:106420000000EB007A0007000B40E8000080FB0052
:1064300060407E000080FB004100200074000700E7
:10644000E40007000080FB008100200070000700CE
:10645000E00007000080FB00810020006C000700C6
:106460004100200020002000690007008BC5E800E3
:10647000280037008B45E800D600070060000700C1
:10648000240037000B40E8000080FB0060407E00E5
:106490008BC5E8005A0007001E0037008B45E80056
:1064A00058000700B50007001A0037000B40E8004D
:1064B0000080FB0060407E000080FB0001F02000B7
:1064C00060C07800AD0007008BC5E8001100370000
:1064D0000B40E8000080FB0060417E000281FB0071
:1064E0000BC0E8000080FB0001F0200060407E004F
:1064F00000F17800E3C54500060037008B45E80051
:106500008B45E8008B45E8008B45E800010037002B
:106510008D457800B0ED20001080FB00E00FB20048
:1065200002003A008DCF550081FD39004F077800F9
